:020000040800F2
:100000000050002015810008A5270008A927000836
:10001000AD270008B1270008B52700080000000040
:10002000000000000000000000000000B9270008E8
:10003000BD27000800000000C1270008C5270008F0
:100040005D8100085D8100085D8100085D81000818
:100050005D8100085D810008C92700085D810008F6
:10006000D1270008D92700085D8100085D810008BC
:100070005D8100085D8100085D8100085D810008E8
:100080005D8100085D8100085D8100085D810008D8
:100090005D8100085D8100085D8100085D810008C8
:1000A0005D8100085D8100085D8100085D810008B8
:1000B0005D8100085D810008E12700085D8100087E
:1000C0005D8100085D8100085D810008ED27000862
:1000D0005D810008F92700085D8100085D81000846
:1000E0005D8100085D8100085D810008000000005E
:1000F0000000000000000000000000000000000000
:0C01000000000000000000005FF808F1A3
:10010C0010B5054C237833B9044B13B10448AFF345
:10011C0000800123237010BD8C0000200000000023
:10012C007895000808B5034B1BB103490348AFF39E
:10013C00008008BD000000009000002078950008A9
:10014C0053B94AB9002908BF00281CBF4FF0FF3132
:10015C004FF0FF3000F074B9ADF1080C6DE904CE2E
:10016C0000F006F8DDF804E0DDE9022304B0704786
:10017C002DE9F0478C460446089E002B4BD18A4251
:10018C00154667D9B2FA82F24AB1C2F1200701FAD8
:10019C0002F320FA07F7954047EA030C94404FEA24
:1001AC00154EBCFBFEF71FFA85F80EFB17C307FBB9
:1001BC0008F9210C41EA0343994509D9EB1807F1D9
:1001CC00FF3180F01C81994540F21981023F2B448C
:1001DC00A3EB0903B3FBFEF00EFB103300FB08F19D
:1001EC00A4B244EA0344A14209D92C1900F1FF330B
:1001FC0080F00781A14240F2048102382C4440EA8D
:10020C0007400027641A1EB10023D440C6E90043FE
:10021C003946BDE8F0878B4209D9002E00F0EC80FE
:10022C000027C6E9000138463946BDE8F087B3FA25
:10023C0083F7002F48D18B4202D3824200F2FB801D
:10024C00841A61EB030301209C46002EE0D0C6E922
:10025C00004CDDE702B9FFDEB2FA82F2002A40F070
:10026C008F800127491B4FEA15481FFA85F9B1FB0E
:10027C00F8FE08FB1E1109FB0EF04FEA144C4CEA79
:10028C000143984207D9EB180EF1FF3102D2984284
:10029C0000F2CD808E461B1AB3FBF8F008FB10332E
:1002AC0009FB00F9A4B244EA0344A14507D92C196F
:1002BC0000F1FF3302D2A14500F2B6801846A4EB40
:1002CC00090440EA0E409EE7C7F12005BB4022FA24
:1002DC0005FC4CEA030C21FA05F44FEA1C4EB4FB66
:1002EC00FEF91FFA8CF80EFB194420FA05F3B940FD
:1002FC0009FB08FA19430B0C43EA0444A24502FA21
:10030C0007F200FA07F30BD91CEB040409F1FF30D8
:10031C0080F08880A24540F28580A9F102096444EE
:10032C00A4EB0A04B4FBFEF00EFB104400FB08FA2D
:10033C0089B241EA0444A24508D91CEB040400F13B
:10034C00FF316BD2A24569D90238644440EA0940B6
:10035C00A0FB0289A4EB0A044C454146CE4654D37B
:10036C0051D0002E69D05A1A64EB0E0404FA05F52C
:10037C0022FA07F3FC401D43C6E90054002747E767
:10038C009540C2F1200321FA03F04FEA1548B0FB67
:10039C00F8F71FFA85F908FB170024FA03F39140CC
:1003AC0007FB09FC0B43190C41EA00418C4504FA8C
:1003BC0002F407D9691807F1FF3031D28C452FD9D7
:1003CC00023F2944A1EB0C01B1FBF8F008FB101C17
:1003DC0000FB09FE99B241EA0C418E4507D9691818
:1003EC0000F1FF3318D28E4516D902382944A1EBFF
:1003FC000E0140EA07473AE73746304608E70F4612
:10040C00E6E61846FBE64345ABD2B8EB020169EBD6
:10041C000C0201389646A4E71846E8E7084695E72B
:10042C000746CFE781467BE702382C4447E7AEF11D
:10043C00020E2B442FE7384607E73746E8E600BFA5
:10044C00704700BF034613F8012B002AFBD1181A82
:10045C00013870474FF47A7370B50D4D0D4A2978F9
:10046C001268B3FBF1F30646B2FBF3F000F08CF824
:10047C0008B90F2E01D9012070BD04460246314641
:10048C004FF0FF3000F03EF86E60204670BD00BFAC
:10049C000000002024000020074A08B51368032040
:1004AC0043F01003136000F01BF80020FFF7D2FF9D
:1004BC0002F0AAF8002008BD00200240034A044BB9
:1004CC0011681B780B441360704700BFE0000020DC
:1004DC0000000020014B1868704700BFE0000020AE
:1004EC004FF6FF01064A0002D36800F4E0600B40AF
:1004FC0043F0BF6343F400330343D360704700BF42
:10050C0000ED00E0184B30B4DB68C3F30223C3F1F9
:10051C000705042D03F1040428BF0425062C19D962
:10052C004FF0FF34033B9C4022EA04044FF0FF32AF
:10053C00AA4021EA020101FA03F222431201002827
:10054C00D2B20ADB00F1604000F5614080F8002374
:10055C0030BC704700242346E8E7044B00F00F0042
:10056C0003441A7630BC704700ED00E0FCEC00E070
:10057C00012300F01F01034A40098B4042F8203050
:10058C00704700BF00E100E00138B0F1807F0DD270
:10059C0030B4F02500220721054B064C586084F836
:1005AC002350104630BC9A60196070470120704788
:1005BC0010E000E000ED00E038B590F82130022B9F
:1005CC0004D0042201248263204638BD03681D49EF
:1005DC001A688B4222F00E021A601A6822F001028D
:1005EC001A6021D0184A93421CD0143293421DD069
:1005FC00143293421DD0143293421DD014329342C4
:10060C000CBF4FF480134FF08073012100240F4D69
:10061C00426B6B6080F8211080F820407AB19047D3
:10062C00204638BD1023F0E70123EEE74FF480732A
:10063C00EBE74FF48053E8E74FF48033E5E71446DB
:10064C00C2E700BF080002401C000240000002404C
:10065C002DE9F04F4FF0000883B04446DFF8C0C1DD
:10066C00694EDFF8C0E102E00134102C78D0012390
:10067C000A68A3401A409342F6D14D68122D00F03F
:10068C009C807ED8022D00F0948074D9032D00F04C
:10069C008D80112D02D1CB6803F10408FF2A62D89A
:1006AC0082460368A5004FF00F0909FA05FB23EAFF
:1006BC000B0308FA05F52B43CAF80030D1F804A057
:1006CC001AF0805FD0D0514F24F00305BB6905F1BF
:1006DC00804543F00103BB61BB6905F5803503F030
:1006EC000103019304F0030B019B4FEA8B0BAB68E6
:1006FC0009FA0BF9604523EA09030FD0704560D065
:10070C00434FB84278D0434FB8420CBF4FF0030967
:10071C004FF0040909FA0BFB43EA0B03AB60336897
:10072C001AF4803F14BF13439343336073681AF475
:10073C00003F14BF134393437360B3681AF4801FD4
:10074C0014BF13439343B360F3681AF4001F04F10E
:10075C00010414BF1A4323EA0202102CF26086D162
:10076C0003B0BDE8F08F04F18045083D4368AD004F
:10077C0000F1040A97E7A5B1012D8FD1D1F80C80B7
:10078C008CE7254FBD420CD029D9244FBD4208D04F
:10079C0007F58037BD4204D0DFF88C904D457FF4CF
:1007AC007DAF8D68A5B94FF0040877E74FF00008CE
:1007BC0074E7CB6803F1080870E7CB6803F10C0809
:1007CC006CE74FF0010909FA0BFB43EA0B03A5E7B1
:1007DC00012D0CBF036143614FF008085EE7DFF8A1
:1007EC004C904D45DDD009F580394D457FF456AF21
:1007FC008D68002DD7D0EBE74FF0020909FA0BFBFF
:10080C0043EA0B038AE700BF0004014000100240DA
:10081C0000100140001401400000211000003110B4
:10082C0000080140000C01400000221000001110D3
:10083C0002B9090401617047044A5169014200D1AF
:10084C00704708B5506107F049FD08BD0004014030
:10085C002DE9F041036882B0DD07044630D5AB4981
:10086C004A6802F00C02042A00F0DA804A6802F0AE
:10087C000C02082A00F0D0806368B3F5803F00F0CA
:10088C000F81002B00F02781B3F5A02F00F0B5816C
:10089C009E4B1A6822F480321A601A6822F4802265
:1008AC001A60FFF717FE994D064605E0FFF712FE9A
:1008BC00801B642800F20B812B689A03F6D5236801
:1008CC009F0728D5914A516811F00C0F00F0B680A3
:1008DC00516801F00C01082900F0AC802369002B51
:1008EC0000F0418101228A4B884D1A60FFF7F2FD1E
:1008FC00064605E0FFF7EEFD801B022800F2E780BC
:10090C002B689807F6D52B68626923F0F80343EA45
:10091C00C2032B6023681A0722D5A369002B00F0B1
:10092C00988001227B4B794D1A60FFF7D3FD064668
:10093C0005E0FFF7CFFD801B022800F2C8806B6A30
:10094C009B07F6D5744B754A1B68A2FB03235B0A05
:10095C00019300BF019B5A1E0192002BF9D1236811
:10096C005D0739D5694BDA69D00040F182800025EA
:10097C006B4B1A68D10540F19980E368012B0FD0BD
:10098C00002B00F0D180052B604B1A6A00F0FC8024
:10099C0022F001021A621A6A22F004021A6204E0BE
:1009AC005A4A136A43F001031362FFF793FD574E43
:1009BC00804641F2883706E0FFF78CFDA0EB08007B
:1009CC00B84200F28480336A9B07F5D525B14F4AB3
:1009DC00D36923F08053D361E269CAB14B4D696886
:1009EC0001F00C01082930D0022A4FF000014D4AC9
:1009FC0000F0D2801160FFF76DFD2C46054604E037
:100A0C00FFF768FD401B022861D823689B01F7D4CF
:100A1C00002002B0BDE8F0814A68D0037FF52CAF0E
:100A2C003A4A126891037FF54BAF6268002A7FF453
:100A3C0047AF0AE05268D6033FF550AF334A12680D
:100A4C00950721D52269012A1ED0012002B0BDE8EC
:100A5C00F081304A2D4D1360FFF73CFD064604E053
:100A6C00FFF738FD801B022831D86B6A9F07F7D43B
:100A7C0075E7DA69012542F08052DA61DB6903F02F
:100A8C0080530093009B73E7204960690A6822F049
:100A9C00F80242EAC0020A601A077FF561AF3CE730
:100AAC001A4A136843F480331360FAE61A681E4638
:100ABC0042F480721A60FFF70DFD07463368DA05C1
:100ACC003FF55BAFFFF706FDC01B6428F6D903208A
:100ADC0002B0BDE8F08103F1804303F504331A68DA
:100AEC001D4622F480321A601A6822F480221A60A1
:100AFC00FFF7F0FC064604E0FFF7ECFC801B6428D3
:100B0C00E5D82B689B03F7D4D9E600BF0010024050
:100B1C00000042428004424224000020D34D621067
:100B2C00007000406000424203F1804303F504333F
:100B3C001A6A1E4622F001021A621A6A41F28838B9
:100B4C0022F004021A62FFF7C5FC074604E0FFF727
:100B5C00C1FCC01B4045BAD8336A9807F7D4002DA6
:100B6C003FF43AAF33E72B4A2B4D1360FFF7B2FC3F
:100B7C00064604E0FFF7AEFC801B0228A7D82B68C2
:100B8C009907F7D42368C6E642F004021A621A6A7F
:100B9C0042F001021A6208E71160FFF79BFC06465F
:100BAC0004E0FFF797FC801B022890D82B68990172
:100BBC00F7D4226AB2F5803F05D16B68A16823F4A3
:100BCC0000330B436B600125134B606A5968024379
:100BDC0021F4741111480A435A6005601C46FFF752
:100BEC0079FC054605E0FFF775FC401B02283FF633
:100BFC006EAF23689A01F6D50AE703F18043A3F59B
:100C0C003C331A6842F480221A601A6842F480322B
:100C1C001A6046E600004242001002406000424268
:100C2C006A4A136803F007038B420BD2136823F054
:100C3C0007030B431360136803F007038B4201D0C7
:100C4C00012070472DE9F041036886B09D0714D54B
:100C5C005C0704D55E4C626842F4E06262601A077D
:100C6C0004D55B4C626842F460526260584C8568F3
:100C7C00626822F0F0022A436260DB0704460E46EB
:100C8C0025D54268524B012A1B6800F09980022A34
:100C9C0000F0928098072AD54D4D41F288386B6848
:100CAC0023F0030313436B60FFF714FC63680746E0
:100CBC00012B64D0022B06D16CE0FFF70BFCC01BA0
:100CCC00404500F281806B6813F00C0FF5D13F4A60
:100CDC00136803F00703B3420DD9136823F007031D
:100CEC0033431360136803F00703B34203D00120AE
:100CFC0006B0BDE8F0812368590706D53449E06891
:100D0C004A6822F4E06202434A601A0707D5304A67
:100D1C002169536823F4605343EAC103536040F2E2
:100D2C0001222C4B06ACADF804200FCB04E90F00CC
:100D3C0027494A6802F00C03082B10D0264B244A92
:100D4C00264852682649C2F30312825C0020D34025
:100D5C000B60FFF77FFB002006B0BDE8F081C2F30B
:100D6C008343234413F8100CD30319D41D4B03FBFA
:100D7C0000F3E4E7FFF7AEFBC01B404524D86B68DB
:100D8C0003F00C03042BF5D1A1E7FFF7A3FBC01B69
:100D9C00404519D86B6803F00C03082BF5D196E786
:100DAC004A680D4BC2F3404203FB00F3224412F895
:100DBC00142CB3FBF2F3C2E79D013FF56DAF96E740
:100DCC009F033FF569AF92E7032091E700200240B3
:100DDC00001002409095000800127A00DC95000883
:100DEC002400002000093D00044B05495B68054ABE
:100DFC00C3F30223CB5C1068D8407047001002404C
:100E0C00EC95000824000020044B05495B68054A5A
:100E1C00C3F3C223CB5C1068D8407047001002406B
:100E2C00EC950008240000202DE9F041044690F8D0
:100E3C00500082B0012871D01E46012384F8503036
:100E4C000D461746FFF746FB804694F85100C0B29A
:100E5C00012809D002200122002384F8512084F8B3
:100E6C00503002B0BDE8F081002DF4D0002FF2D04C
:100E7C000323002284F85130A3682068B3F5004F97
:100E8C006265A263A287C4E91022E7862563E28724
:100E9C00A786024603D1036843F4804303600368CA
:100EAC0059063FD5E3686168B3F5006F00F0B08078
:100EBC00002951D115F8013B03732068E38E0246DB
:100ECC00013B9BB2E386711C31D0002E52D0E38ED5
:100EDC009BB273B183689A0755D4FFF7FBFAA0EB6A
:100EEC00080086424DD9E38E20689BB20246002B47
:100EFC00F0D1771C51D183689D07FCD583681A0605
:100F0C00FCD4A3682BB90193C36801938368019344
:100F1C00019B606D003018BF01209CE7022002B0DD
:100F2C00BDE8F081036843F040030360BAE7E38E49
:100F3C009BB2002BDDD083689B07F8D515F8013BDD
:100F4C000373E38E2068013B9BB2E386E38E02467B
:100F5C009BB2002BEFD1CCE7E38E9BB2012BB2D12D
:100F6C00A8E715F8013B03732068E38E0246013BAA
:100F7C009BB2E386E38E9BB2002BBAD083689F07AB
:100F8C00EFD4032067E715F8013B0373E38E206869
:100F9C00013B9BB2E386024699E78368990713D419
:100FAC00002E00F08A80FFF795FAA0EB080086422D
:100FBC0040F28280206802469BE7FFF78BFAA0EB99
:100FCC0008008642206804D983681B0699D5002E38
:100FDC00F3D14368626823F0E003B2F5827F43608B
:100FEC0000F09180A36AB3F5005F08D14DF6FF7253
:100FFC00036813400360036843F40053036001204B
:10100C00202284F85100636D13436365626522E707
:10101C00002949D0E38E9BB2012B45D0771C16D00A
:10102C00002E2FD0E38E9BB2002B3FF462AF83686F
:10103C00990731D4FFF74EFAA0EB08008642A0D9ED
:10104C00E38E20689BB20246002BF0D151E7E38E71
:10105C009BB2002B3FF44DAF83689B07F7D535F857
:10106C00023BC360E38E013B9BB2E386E38E9BB2F3
:10107C00002BF1D13DE735F8023BC360E38E013B19
:10108C009BB2E386E38E9BB2002B3FF432AF8368B6
:10109C009B077FF576AFEEE735F8023BC360E38E36
:1010AC00013B9BB2E386BDE735F8023BC360E38EA0
:1010BC00013B9BB2E386B1E722685368616823F079
:1010CC00E003B1F5827F536011D0A36AB3F5005FE2
:1010DC0008D14DF6FF7113680B401360136843F48D
:1010EC00005313600123032084F85130B3E6A36846
:1010FC00B3F5004F02D0B3F5806FE6D1136823F03F
:10110C0040031360E1E7A368B3F5004F03D0B3F5D8
:10111C00806F7FF467AF036823F04003036061E7DF
:10112C002DE9F043044640680D46B0F5827F83B04C
:10113C0016461F4694F8501018D0012900F08D80E7
:10114C00012384F85030FFF7C5F9804694F851001C
:10115C00C0B2012800F0858002200122002384F80F
:10116C00512084F8503003B0BDE8F083A368002B05
:10117C00E3D10423012984F851306ED0012384F883
:10118C005030FFF7A7F994F851308046DBB2012BB1
:10119C00626807D0B2F5827FDED1A1680029DBD16D
:1011AC00042BD9D1002D00F02781002E00F02481D2
:1011BC0094F851300021012B04BF052384F85130E1
:1011CC0023686165E687E6861868C4E91011410654
:1011DC00A563A6872563A68603D4196841F0400150
:1011EC001960E1682E46B1F5006F00F06D81002AA0
:1011FC0000F06281E28E92B2012A00F05D817B1CCC
:10120C0040F0CA8001212368E28E92B222B9E28FAB
:10121C0092B2002A00F0CD8071B1E28E92B25AB136
:10122C009A68900708D50021327801361A73E28E3D
:10123C002368013A92B2E286E28F92B2002AE3D09E
:10124C009A68D207E0D50121DB682B70E38F0D443F
:10125C00013B9BB2E3872368D6E7022003B0BDE8CD
:10126C00F083002D3FF479AF002E3FF476AF0023CE
:10127C000422A16884F85120B1F5004F6365A56381
:10128C00E687A6872363A386C4E91033E386226826
:10129C005ED01368580603D4136843F04003136000
:1012AC00E368A3B97E1C3FD0002F5DD0E38F9BB2C7
:1012BC00002B30D023689A68D00700F18D80FFF79F
:1012CC0009F9A0EB08008742F0D8032045E7791C08
:1012DC0010D0002F58D0E38F9BB2E3B123689A68EB
:1012EC00D20700F18180FFF7F5F8A0EB08008742E8
:1012FC00F1D8EAE7E38F9BB26BB19368DF07F9D5BE
:10130C00D36825F8023BE38F013B9BB2E387E38F65
:10131C009BB2002BF1D16368B3F5827F6ED0606D08
:10132C00003018BF012018E7E38F9BB2002BF2D0DE
:10133C0023689A68D107F7D51B7B05F8013BE38F2F
:10134C00013B9BB2E387E38F9BB2002BF0D1E2E72A
:10135C00136823F4804313609BE71B7B05F8013B68
:10136C00E38F013B9BB2E387E38F9BB2002BD2D080
:10137C0023689A68D207A8D5EFE7D36825F8023B13
:10138C00E38F013B9BB2E387E38F9BB2002BC2D070
:10139C009368DB0799D5F0E74FF00109E38E9BB218
:1013AC00002B40F0C180E38F9BB2002B40F0BC803F
:1013BC002368781C2FD19A689107FCD59A68160679
:1013CC00FCD4A068002840F016810190DA680192E4
:1013DC009B680193019BC0E61B7B05F8013BE38FE7
:1013EC00013B9BB2E38761E7DB6825F8023BE38FA7
:1013FC00013B9BB2E3876EE70120AEE6A368B3F531
:10140C00004F02D0B3F5806F89D12268136823F0A6
:10141C004003136083E79A68920729D437B1FFF72A
:10142C0059F8A0EB080087422368C2D85A68616853
:10143C0022F0E002B1F5827F5A6000F0DE80A26AF1
:10144C00B2F5005F08D14DF6FF711A680A401A60B8
:10145C001A6842F400521A600123032084F85130B8
:10146C007BE6FFF737F8A0EB08008742236804D926
:10147C009A681506A5D5002FF3D15A68616822F039
:10148C00E002B1F5827F5A6000F0C480A26AB2F526
:10149C00005F08D14DF6FF711A680A401A601A688D
:1014AC0042F400521A600120202284F85100636D2E
:1014BC0013436365626550E616F8012B1A73E38ECD
:1014CC00013B9BB2E3869AE6002A58D0E28E92B298
:1014DC00012A54D0791C5AD10121E28E92B222B940
:1014EC00E28F92B2002A3FF464AF69B1E28E92B2FD
:1014FC0052B19A68920707D5002136F8022BDA60B0
:10150C00E28E013A92B2E286E28F92B2002AE4D0E5
:10151C009A68D007E1D5DA68012125F8022BE28F11
:10152C00013A92B2E287D8E7B9F1000F0FD0E38EFF
:10153C009BB263B123689A68910708D54FF00009F4
:10154C00327801361A73E38E013B9BB2E386E38F4C
:10155C009BB263B123689A68D20708D54FF0010992
:10156C00DB682B70E38F4D44013B9BB2E387FEF7A6
:10157C00B1FFA0EB080087423FF610AFA5E636F8A6
:10158C00022BDA60E28E013A92B2E286A2E74FF0C9
:10159C000109E38E9BB223B9E38F9BB2002B3FF47E
:1015AC0007AFB9F1000F0FD0E38E9BB263B1236884
:1015BC009A68920708D54FF0000936F8022BDA60CA
:1015CC00E38E013B9BB2E386E38F9BB263B123684E
:1015DC009A68D00708D54FF00109DB6825F8023B63
:1015EC00E38F013B9BB2E387FEF774FFA0EB08008F
:1015FC008742CED869E60020AFE5A268B2F5004F6D
:10160C0003D0B2F5806F7FF41AAF1A6822F0400253
:10161C001A6014E7A268B2F5004F03D0B2F5806FE0
:10162C007FF434AF1A6822F040021A602EE700BF34
:10163C00704700BF026830B55568916885B001F0FD
:10164C004104012C034654D08C0707D5280605D538
:10165C0018465A6C05B0BDE83040104711F0600FC9
:10166C0045D0AC0643D548060ED593F85100032857
:10167C0046D00024586D40F0040058650194D068A1
:10168C00019090680190019889060CD50020596D45
:10169C0041F001015965039091680391116821F0A3
:1016AC00400111600399596D09B31C46012153681F
:1016BC0023F0E0035360AB0784F8511014D0536847
:1016CC00E16C23F00303536021B1114B08464B63CB
:1016DC00FEF772FFA36C53B118460D4A5A6305B05E
:1016EC00BDE83040FEF768BF2046FFF7A1FF05B00C
:1016FC0030BD6C06A8D5036C05B0BDE8304018476A
:10170C0000230293D368029393680293029BEEE743
:10171C0021170008002208B5436ADA871846DA86D2
:10172C00FFF786FF08BD00BF002839D0F8B50023AD
:10173C0090F851200446836272B31A46D4E90136FC
:10174C00022700210125E0683343266903436069C1
:10175C003343E66903433343206AA66984F8517026
:10176C000343276806F40070034313433A68606A26
:10177C0022F04002360C3A6006F004063B60E36A45
:10178C0006437E603B61FB69084623F40063FB6102
:10179C00616584F85150F8BD00F058FFA26ACDE79E
:1017AC000120704703680020DA6842F00102DA6019
:1017BC001A6842F001021A60704700BF002836D048
:1017CC0090F83D3070B503F0FF0204460BB30223D2
:1017DC002268204E84F83D30B2421368A569E06857
:1017EC00616826D0B2F1804F18D0A6F59436B2427B
:1017FC0014D006F58066B24210D023F080032B4340
:10180C001360D062916201230020536184F83D3053
:10181C0070BD80F83C2000F05BFFD8E7A66823F091
:10182C0070033343266923F440733343E5E7012007
:10183C007047A66823F070033343266923F4407382
:10184C00334323F080032B431360D06291626369AE
:10185C001363D8E7002C014090F83C30012B00F0CA
:10186C009380F0B40223012480F83D3080F83C4092
:10187C000C2A29D8DFE802F0312828284E282828FD
:10188C006B282828070003688F681D6A0E6825F4EA
:10189C0080551D621A6A534DD3F804C0DC6922F4DA
:1018AC00005224F4E644AB4242EA073244EA0624EE
:1018BC0004D14D692CF4804C4CEA851C4968C3F862
:1018CC0004C0DC6119641A620023F0BC012280F8A8
:1018DC003C3080F83D201846704703688F681D6ABD
:1018EC000E6825F001051D621A6A3E4DD3F804C03E
:1018FC009C6922F0020224F07304AB4242EA070214
:10190C0044EA060451D04968C3F804C09C61596389
:10191C001A62D9E703688F681D6A0E6825F01005F6
:10192C001D621A6A2F4DD3F804C09C6922F0200264
:10193C0024F4E644AB4242EA071244EA062442D0BD
:10194C004968C3F804C09C6199631A62BCE70368D8
:10195C008F681D6A0E6825F480751D621A6A214D08
:10196C00D3F804C0DC6922F4007224F07304AB4297
:10197C0042EA072244EA060408D04968C3F804C0C6
:10198C00DC61D9631A629FE702207047CE6822F4AB
:10199C000062D1E905752CF4405C42EA06223D4315
:1019AC0022F480624CEA051CE7E7CF6822F00802BB
:1019BC00D1E905562CF4407C3A43354322F004021D
:1019CC0045EA0C0C9FE7CE6822F08002D1E9057540
:1019DC002CF4406C42EA06123D4322F040024CEAE1
:1019EC00850CADE7002C0140704700BF704700BF6D
:1019FC00704700BF704700BF036810B51A690446F2
:101A0C00910702D5DA6892075FD41A69500702D59C
:101A1C00DA68510746D41A69120702D5DA6810073A
:101A2C002ED41A69D20602D5DA68D00618D41A69EF
:101A3C00D10702D5DA68D2075DD41A69100602D52F
:101A4C00DA6811065FD41A69520602D5DA685006B4
:101A5C0061D41A69910602D5DA68920643D410BD96
:101A6C006FF0100108221961DB69204613F4407FE6
:101A7C00227764D0FFF7BAFF002223682277D6E7DB
:101A8C006FF0080104221961DB692046990722775F
:101A9C0052D1FFF7A9FF2046FFF7AAFF00222368C7
:101AAC002277BEE76FF00401022219619B69204680
:101ABC0013F4407F22773CD1FFF796FF2046FFF7C7
:101ACC0097FF002223682277A5E76FF0020101221D
:101ADC0019619B6902779B0725D0FFF787FF0022CE
:101AEC002368227791E76FF020022046BDE8104072
:101AFC001A6100F051B86FF0010220461A6106F02D
:101B0C00A3FC236899E76FF0800220461A6100F06D
:101B1C0045F8236897E76FF0400220461A61FFF7FB
:101B2C0069FF236895E7FFF75FFF2046FFF760FF2B
:101B3C00D5E7FFF75BFFC4E7FFF758FFAEE7FFF70A
:101B4C0053FF2046FFF754FF96E700BF90F83C3058
:101B5C00012B1ED002460220F0B40025012613688A
:101B6C0082F83D005C680F6824F070045C60586873
:101B7C004C6838435860986820F0800098609968E9
:101B8C0028462143996082F83D6082F83C50F0BCB5
:101B9C0070470220704700BF704700BF704700BFFE
:101BAC00002800F09C802DE9F84390F83930044669
:101BBC0003F0FF02002B00F08D802422236884F8B0
:101BCC003920DA68E06822F40052DA601969A268F8
:101BDC0021F4405101431961D968D4E9045021F42E
:101BEC00B0512A4321F00C0102430A43DA605A69CE
:101BFC00A0695B4922F4407202438B425A6170D057
:101C0C00FFF7F2F8636800EB800000EB80009B00AC
:101C1C00B0FBF3F3534F4FF06408A7FB03235B09AE
:101C2C001D01FFF7E1F8666800EB800000EB800017
:101C3C00B600B0FBF6F6FFF7D7F8626800EB800051
:101C4C00930000EB8000B0FBF3F3A7FB03235B09CD
:101C5C0008FB13631B013233A7FB03235B0903F05F
:101C6C00F006FFF7C1F8626800EB800000EB800023
:101C7C009300B0FBF3F9FFF7B7F8626800EB800054
:101C8C00930000EB8000B0FBF3F3A7FB03235B098D
:101C9C0008FB13931B013233A7FB0323C3F343133A
:101CAC0033432B4420210025226828469360136976
:101CBC0023F490431361536923F02A035361D368CF
:101CCC0043F40053D360E56384F8391084F83A1078
:101CDC00BDE8F88380F8382000F01AFD6DE701208C
:101CEC007047FFF791F8636800EB800000EB800011
:101CFC009B00B0FBF3F31B4F4FF06408A7FB0323CF
:101D0C005B091D01FFF780F8666800EB800000EBB3
:101D1C008000B600B0FBF6F6FFF776F8626800EBD1
:101D2C008000930000EB8000B0FBF3F3A7FB0323D0
:101D3C005B0908FB13631B013233A7FB03235B090D
:101D4C0003F0F006FFF760F8626800EB8000930088
:101D5C0000EB8000B0FBF3F9FFF756F88DE700BFFE
:101D6C00003801401F85EB51F0B5044690F839005E
:101D7C0083B020282DD10E4600292DD001925AB3C4
:101D8C001F4694F83830012B23D000200121212349
:101D9C00E06384F8381084F83930FEF79BFB054675
:101DAC00019AA284E2842268E38C9BB2002B39D086
:101DBC00E08CA168013880B2B1F5805FE08419D065
:101DCC00781C3BD110680106FCD533780136536082
:101DDC00EAE7022003B0F0BD012003B0F0BD1368A8
:101DEC001B060CD4002F33D0FEF774FB401B87422C
:101DFC0022682DD3781CF2D110680106FCD53388EB
:101E0C002169C3F308035360002934D10236CBE7B0
:101E1C0013685B060BD4DFB1FEF75CFB401B8742FB
:101E2C00226815D3781CF3D113685906FCD52023EE
:101E3C00002084F8393084F83800CBE713681B068F
:101E4C00C3D42FB1FEF746FB401B87422268B7D2A2
:101E5C00202100250320D36823F4D073D360536969
:101E6C0023F00103536184F8391084F8385084F856
:101E7C003A1003B0F0BD013696E700BF704700BFC3
:101E8C00704700BF10B584680169B4F5805F836A40
:101E9C00026820D05C1C52688462C9B91A70C38D68
:101EAC00013B9BB2C3858BB920240268D16821F019
:101EBC002001D160D16821F48071D160516921F089
:101ECC000101516180F83A40FFF7DAFF002010BDA4
:101EDC0002F07F02E2E7526829B9C2F3080223F844
:101EEC00022B8362DBE7D2B223F8012B8362D6E7A5
:101EFC00704700BF036870B51A6804461607DD68A2
:101F0C0059694AD011F0010150D0D60705D5E80522
:101F1C0003D5E06B40F00100E063560702F00200CD
:101F2C0076D561B1E16B02F0080641F00201E16384
:101F3C00002872D11EB1E16B41F00801E163E16B45
:101F4C00002932D0960601D5A80674D45D69E16BE0
:101F5C00090702D415F040057AD02021DA6822F462
:101F6C009072DA605A6922F001025A6184F83A10D0
:101F7C005A6952065BD55A69616B22F040025A616C
:101F8C00002954D03B4B08464B63FEF715FB60B160
:101F9C00606BBDE87040436B1847960609D5A906DF
:101FAC0007D590F83A30222B4ED070BD15F4907FA7
:101FBC00ABD116060ED45106F7D56A06F5D52021FD
:101FCC00DA68204622F04002DA6084F83910FFF714
:101FDC0055FF70BD2806EED594F83920212AE4D19E
:101FEC00A168226AB1F5805F37D0511C216212784A
:101FFC005A60E28C013A92B2E284002AD5D1DA68B6
:10200C0022F08002DA60DA6842F04002DA6070BDD9
:10201C0040B1002993D002F00806E16B41F00401B5
:10202C00E16387E710078AD5002984D187E720462A
:10203C00FFF75EFF70BD94F83A20222A86D1204625
:10204C00FFF720FF236881E7BDE87040FFF71ABF58
:10205C002046FFF74DFFE56370BD11882069C1F381
:10206C000801596010B902322262C2E701322262C1
:10207C00BFE700BF85200008002208B5436ADA8557
:10208C001846DA84FFF734FF08BD00BF30B50023D3
:10209C0001214FF4803202244FF4E01591B006A8D0
:1020AC00089301930993CDE90B33CDE90233CDE9C4
:1020BC00043306910A910792CDE90D420F95FEF774
:1020CC00C7FB00B1FEE703460F254FF4806201A861
:1020DC002146CDE90243059301950492FEF7A0FD3C
:1020EC0000B1FEE711B030BD002500B58FB0FEF792
:1020FC00D3F9FFF7CBFFCDE90755CDE90955764B61
:10210C002A469969012641F01001996198694FF4AA
:10211C00C04100F01000019001989C696F4844F098
:10212C0020049C619C6904F020040294029C9C692C
:10213C0044F004049C619C6904F004040394039C23
:10214C009C6944F008049C619B69022403F0080319
:10215C000493049BFEF76CFB2A4648F2120160487C
:10216C00FEF766FB2A461E215E48FEF761FB4FF424
:10217C00C04307A95948CDE907360A940995FEF7DB
:10218C0067FA40F60D02584B07A955480792089379
:10219C000995FEF75DFA48F2120307A950480A9414
:1021AC000793CDE90865FEF753FA1E2307A94D489E
:1021BC000A940793CDE90865FEF74AFAC02307A9EC
:1021CC0048480793CDE90855FEF742FA2A462946B6
:1021DC000620FEF797F90620FEF7CAF92A4629468B
:1021EC000820FEF78FF90820FEF7C2F92A46294687
:1021FC000920FEF787F90920FEF7BAF94FF4E1320E
:10220C000C233A4C3A492046C4E902552561C4E9ED
:10221C000655C4E900126361FFF7C2FC00B1FEE78A
:10222C004FF482710A2328224FF40076314DC5E910
:10223C0001103149C5E903006861C5E90800A862CD
:10224C002846EB62AE612960EA61FFF76DFA03463E
:10225C0000B1FEE740F6C9004FF6FE72274E284942
:10226C00706030460593CDE90733CDE90933CDE9EC
:10227C000B330D93B3603361B36106933160F2603D
:10228C00FFF79CFA034600B1FEE705A93046CDE9FD
:10229C000533FFF75BFC034600B1FEE7024607A9D6
:1022AC003046CDE9073309930B93FFF7D5FA00B10C
:1022BC00FEE73046FFF776FA2A68124D136843F0B2
:1022CC004003136005230F2229462046FFF74CFDDF
:1022DC0000F05CF8F6E700BF00100240001001406F
:1022EC0000080140000C01400000111024010020E6
:1022FC00003801406401002000300140E40000205F
:10230C0000080040E4A7000810B50E4C9AB0B4F8D1
:10231C00AC3013F080030FD11A220B49012004F0CA
:10232C003DFA94F84821094901A806F055F901A88D
:10233C0005F08EFF1AB010BD054805F089FF1AB0E4
:10234C0010BD00BF7C0200200800002010A800086F
:10235C00F4A700080246024B03CB10605160704793
:10236C00A09500080246024B03CB106051607047E9
:10237C00A095000830B40546034C0FCC286069606A
:10238C00AA60EB6030BC7047A895000810B59AB0F5
:10239C0004F0B2FA04F0C6F9324B334903F11002DF
:1023AC00012004F03DFA01233F223049002004F0C3
:1023BC0057F901237F2218462D4904F051F90123C6
:1023CC003F222C49022004F04BF901233F222A49D9
:1023DC00032004F045F901233F222849042004F08E
:1023EC003FF901233F222649052004F039F9012346
:1023FC003F222449062004F033F901233F222249CD
:10240C00072004F02DF9002380222049082004F035
:10241C0027F9002004F060FA03231D4C0E2105203F
:10242C0084F82F3104F068F9B4F8AC3013F0800361
:10243C0011D11A221749012004F0B0F994F848215F
:10244C00154901A806F0C8F801A805F001FF04F031
:10245C001FFB1AB010BD114805F0FAFE04F018FB72
:10246C001AB010BDB895000879120426A027BE3307
:10247C00E034C1332042C43360E5AE33A0F2B13353
:10248C00E0FFB433200DB833601ABB3300D6C83329
:10249C007C0200200800002010A80008F4A7000807
:1024AC0010B5044605F0E2FE404805F0D1FE601E72
:1024BC000E2866D8DFE800F00D12171C21262B30F1
:1024CC00353A5160565B08003948BDE8104005F0BC
:1024DC00BFBE3848BDE8104005F0BABE3648BDE86E
:1024EC00104005F0B5BE3548BDE8104005F0B0BE53
:1024FC003348BDE8104005F0ABBE3248BDE8104093
:10250C0005F0A6BE3048BDE8104005F0A1BE2F482E
:10251C00BDE8104005F09CBE2D48BDE8104005F00C
:10252C0097BE2C48BDE8104005F092BE2A4C2B48B3
:10253C0005F08EFE94F94931002B32DB94F84B31C7
:10254C0023BB04F0E9F9BDE8104000F51C3101F59E
:10255C008071234A234804F055BA2348BDE8104043
:10256C0005F076BE2148BDE8104005F071BE20484C
:10257C00BDE8104005F06CBE1E48BDE8104005F0EB
:10258C0067BE1D48BDE8104005F062BE1B4805F053
:10259C005FFE94F84B0105F005FE194805F058FE56
:1025AC00CFE7184805F054FEC8E700BF5CA9000847
:1025BC0060A9000828A800083CA8000850A800083A
:1025CC0064A8000878A8000884A8000890A800084F
:1025DC009CA80008ACA800087C020020C0A8000839
:1025EC0015230008A800002024A9000840A9000811
:1025FC0050A9000834A9000870A9000804A9000813
:10260C0010A90008F4A800080E4B82B09A690E4974
:10261C0042F001029A619A6902F001020092009A5A
:10262C00DA6942F08052DA61DB6903F0805301937E
:10263C00019B4B6823F0E06343F000734B6002B0E6
:10264C00704700BF001002400000014070B500242C
:10265C0002681D4B86B09A42CDE90244CDE9044490
:10266C0001D006B070BDA0210226032503F56043FE
:10267C009A69164842F480529A619A6902F480521F
:10268C000092009A9A6942F004029A619B69029145
:10269C0003F00403019302A9019B03960595FDF732
:1026AC00D7FF402302A909480293CDE90344FDF763
:1026BC00CFFF224621462320FDF724FF2320FDF7E0
:1026CC0057FF06B070BD00BF00300140000801404C
:1026DC0002680E4B9A4200D07047002203F5023379
:1026EC0010B5DC6982B044F00404DC61DB6911468E
:1026FC0003F0040301931E20019BFDF703FF1E2032
:10270C0002B0BDE81040FDF733BF00BF0008004029
:10271C0070B5002402681E4B86B09A42CDE9024483
:10272C00CDE9044401D006B070BD4FF4007102260F
:10273C00032503F558439A69164842F480429A617E
:10274C009A6902F480420092009A9A6942F004025B
:10275C009A619B69029103F00403019302A9019B06
:10276C0003960595FDF774FF01234FF4806202A9CF
:10277C0008480493CDE90224FDF76AFF224621465E
:10278C002520FDF7BFFE2520FDF7F2FE06B070BD3B
:10279C000038014000080140704700BFFEE700BF51
:1027AC00FEE700BFFEE700BFFEE700BF704700BFBB
:1027BC00704700BF704700BFFDF780BE0120FEF7D9
:1027CC003BB800BF0420FEF737B800BF0820FEF767
:1027DC0033B800BF0148FFF70FB900BFE400002079
:1027EC000148FEF727BF00BF640100200148FFF736
:1027FC0081BB00BF2401002030B44FF41F054FF003
:10280C0000640E4B0E4A19680E4841F00101196024
:10281C0059680A405A601A6822F0847222F4803295
:10282C001A601A6822F480221A605A6822F4FE0296
:10283C005A609D60846030BC704700BF001002403D
:10284C000000FFF800ED00E0405C704730F811002C
:10285C00704700BF50F82100704700BF50F82100AE
:10286C00704700BF2DE9F04F414E8FB0CDE90510F8
:10287C00D6E90001019200BAD6E9022309BA12BACC
:10288C001BBAC6E9000104243A4DB260F360301F54
:10289C0006F10C0117E015F80C3015F80EE015F8E0
:1028AC0007C043EA0E23AF5D43EA0C63D2F8006124
:1028BC0043EA074350F8042F7340013453402C2C47
:1028CC0041F8043F16D0221F22F0030214F0030F2C
:1028DC005FFA83FE4FEA136CC3F30747C3F3072673
:1028EC002A44D8D050F8042F013453402C2C41F8F2
:1028FC00043FE8D1069B1C0740F1A1820023184637
:10290C001D4AC2E902330C92536013609DF90430E6
:10291C00002B0D9340F36082DFF858A0CDF80090A7
:10292C00069A02F002030793114B5007196808919D
:10293C00596809919968DB680A910B931ED402F0CF
:10294C000A03022B1AD0079B002B00F08F82019BED
:10295C00102B00F28B82DDE908B418BF20231A4338
:10296C0002F002030E4606920793DDF82C8014E069
:10297C00BC010020F49500086C0200200C9B089907
:10298C001A68D3E9014681EA020B099ADB685440C4
:10299C000A9A56400B9A82EA03084246DFF8C4941E
:1029AC004FEA146C5FFA8BF35FFA82F84FEA1B67FD
:1029BC004FEA166EE1B20AEB8C0C0AEB83030AEBBE
:1029CC0088080AEB87070AEB8E0E0AEB8101D3F815
:1029DC002835D8F82885DEF828E1F0B2150EDCF899
:1029EC0028C1D7F82871D1F828150AEB80000AEB1A
:1029FC008505D5F828518CEA030C88EA0707D9F825
:102A0C001430D0F82805C6F307488EEA0101C4F348
:102A1C00074E0AEB88080AEB8E0E00936840D8F834
:102A2C002839CBF30745DEF82889CBF3072E0AEBC0
:102A3C008E0E0AEB8505DEF828BDD5F828E9D9F805
:102A4C001050C4F307247D40D9F818700AEB8404A5
:102A5C007940D9F81C70D4F8284D784080EA0E0ED5
:102A6C008EEA040420460293009BC6F307268CEAE8
:102A7C0003030AEB8606C2F3072CC2F30742D6F80F
:102A8C00286D0AEB8202D2F8282985EA08057540E0
:102A9C0081EA0B015140029FEAB20AEB8C0CDCF884
:102AAC0028CD0AEB8202D2F828257B40C1F3074BD4
:102ABC0083EA0C030AEB8B0B1E0EDCB24FEA116C93
:102ACC00C5F307280292DBF8282900900AEB880846
:102ADC000AEB86060AEB84040AEB8C0CD6F8286108
:102AEC00D4F828459DF800000392DCF828C1D8F8EA
:102AFC00282DC3F3074E049284EA0C0C029A009C16
:102B0C002F0E0AEB8E0EDEF828B97240C1F3072E99
:102B1C00D9F824604FEA14680AEB87070AEB8000A7
:102B2C00C9B2D7F82871D0F828050AEB8101C3F394
:102B3C0007230AEB88080AEB8E0E0AEB830372401C
:102B4C00D1F82815D8F828617840DEF8287DD3F81C
:102B5C0028EDD9F82C307140D9F820605940039BEE
:102B6C00D9F828407040009E5A40C5F30745049B95
:102B7C008CEA040C0AEB8505C6F30724C6F307465A
:102B8C008CEA030CD5F828590AEB84040AEB860668
:102B9C00B34BD4F8284DD6F8286909F1200980EAFE
:102BAC000B0B6940994584EA02048BEA070B8CEA0B
:102BBC00060681EA0E027FF4F3AE90464FEA146EDD
:102BCC005FFA8BF15FFA82FC170EF0B2320EE3B2B1
:102BDC004FEA1B650AEB8E0E0AEB81010AEB8707A5
:102BEC000AEB80000AEB82020AEB8303DEF828E191
:102BFC00D1F82815D7F82871D2F82821D3F8283520
:102C0C00D0F828050AEB8C0C0AEB8505D5F8285171
:102C1C00DCF828C58EEA01097840CBF3074E82EA2E
:102C2C0003079049C4F307438CEA050C0AEB8303B2
:102C3C00C6F30745CBF3072B0AEB8E0ED1F8941095
:102C4C000AEB8B020AEB8505D3F828B9DEF8283994
:102C5C00C8F3072ED5F828590AEB8E0EDEF828EDAE
:102C6C0089EA010169407F4D81EA0E0100912946F4
:102C7C00C8F30748C6F30726C4F307240AEB8809F0
:102C8C000AEB86060AEB8404D6F8288DD9F8286955
:102C9C00D4F8289DD5F89040D5F89C508CEA0404C3
:102CAC00D1F898106840D2F8282D84EA0B0B5840C4
:102CBC008BEA080880EA09094F4057405FFA89F30C
:102CCC004FEA18621AF803301AF80220009943EA06
:102CDC000262644B7E40C6F307270D0EC6F3074015
:102CEC00D3F8A0301AF807E01AF805701AF800505B
:102CFC00C9F30720C1F3074C53401AF80010594A86
:102D0C009DF800005FFA88F41AF80CB01AF8044029
:102D1C001AF80000D2F8A4204FEA166C5440514A1D
:102D2C0083EA0B43D2F8A820F6B250404FEA19625E
:102D3C001AF802B04B4A1AF80CC083EA0E231AF8A0
:102D4C0006E0D2F8AC60C8F3072280EA0C601AF8EF
:102D5C0002C0009AC8F307488EEA06061AF80880E3
:102D6C00C2F307221AF8022086EA0B66C9F3074958
:102D7C0086EA084684EA07641AF8099086EA02266D
:102D8C00079A84EA054480EA0C2084EA012480EA4C
:102D9C00094022B3069AC2F301120092002A40F0B5
:102DAC0098810C9AC2E901401360D660069A02F031
:102DBC000A03022B3BD0019B0599103B9BB201935C
:102DCC005BB2103142F00802002B0D930591069274
:102DDC003FF7A6AD0C9B18680FB0BDE8F08F069AB4
:102DEC00520700F15081059F1D0E39461A0CFB70DD
:102DFC00FC71F8723D70FE734A70220C4A71320AF3
:102E0C001B0A8A73069A8B70030C270E4B72240ACA
:102E1C0002F00A03050E0F71000A370E8C71022B9B
:102E2C004FEA16440D7288720F734C73C3D142F083
:102E3C00080306930D9B002B3FF772ADCAE70A48B7
:102E4C000446D0E9011209BAC3680C9041600068CD
:102E5C0012BA1BBA00BAA260E360206056E500BF4C
:102E6C003C020020BC0100206C020020009B1C02D4
:102E7C00019B002B00F09C800599012B0A7842EAFB
:102E8C00040B4FEA0B2200F0A68191F801B0022B43
:102E9C004BEA020B4FEA0B2B00F097818B7843EA3D
:102EAC000B0B019B4FEA0B2B032B00F08A81059B2C
:102EBC00DB784BEA030B019B4FEA0B24042B00F04D
:102ECC007C81059B1B791C43019B2402052B00F084
:102EDC007081059B5B791C43019B2402062B00F03F
:102EEC006481059B93F806E0019B4EEA0404072BD2
:102EFC004FEA042E00F05581059BDB794EEA030E58
:102F0C00019B4FEA0E26082B00F04781059B1B7A8C
:102F1C001E43019B3602092B00F03B81059B5B7A1B
:102F2C001E43019B36020A2B00F02F81059B9B7AD6
:102F3C001E43019B36020B2B00F02381059BDB7A91
:102F4C001E43019B4FEA06280C2B00F01681059BB3
:102F5C001B7B43EA0808019B4FEA08280D2B00F065
:102F6C000881059B5B7B43EA0808019B4FEA082814
:102F7C000E2B00F0FA80059B9B7B43EA0808019B13
:102F8C004FEA08280F2B00F0EE80059BDB7B48EA0C
:102F9C000308079B002B60D1089B8BEA030B099B52
:102FAC008EEA03040A9B5E400B9B88EA0308F4E458
:102FBC00009B4FEA034B019B4BF4004243EA020B8C
:102FCC00019B4FEA0B2B022B00F0FF80032B4FEAE7
:102FDC000B2B00F0F680042B4FEA0B2400F0ED8055
:102FEC00052B4FEA042400F0E480062B4FEA04245E
:102FFC0000F0DB80072B4FEA042E00F0D280082B68
:10300C004FEA0E2600F0C980092B4FEA062600F085
:10301C00C0800A2B4FEA062600F0B7800B2B4FEA34
:10302C00062600F0AE800C2B4FEA062800F0A58097
:10303C000D2B4FEA082800F09C800E2B4FEA082835
:10304C0000F093800F2B4FEA082800F08C800023AF
:10305C0048EA0308079B002B9ED00C9B089AD3E9E7
:10306C0000505540099A996850400A9A85EA0B0B12
:10307C0082EA0107D9680B9B80EA0E044B407E4024
:10308C0083EA080889E4019A102A114628BF102106
:10309C000D46002A00F09D800599079A01F1FF3C2E
:1030AC0029461CF8017F02F00305032D02F10102F1
:1030BC0087EA136709BF23461B02044630468A423F
:1030CC008CF80070EDD100910C9AD3680133D36069
:1030DC006CE6E50F002B4FEAD67245EA4305009BE0
:1030EC004FEAD07742EA40004FEA4602B8BF82F07E
:1030FC008702012B47EA44071ED0FC0FC60FEB0FCB
:10310C0044EA4505D40F46EA470744EA400052001A
:10311C000BB182F08702009B022B0DD0F90FC40F6C
:10312C00EB0F41EA4505D10F44EA470741EA40005D
:10313C0052000BB182F0870200240C9E0094D6E959
:10314C0000134D405F40D6E902135340F360069BD9
:10315C00414003F0020203F0CF03C6E90057B1600F
:10316C000792069384E6802311E748F08008019BC0
:10317C0068E748F08008019B5FE748F08008019BF6
:10318C0056E746F08006019B4DE746F08006019B12
:10319C0044E746F08006019B3BE746F08006019B26
:1031AC0032E74EF0800E019B29E744F08004019B2E
:1031BC0020E744F08004019B17E744F08004019B56
:1031CC000EE74BF0800B019B05E74BF0800B019B4E
:1031DC00FCE6009278E78023F0E600BF024B034A3E
:1031EC000220DA6104F01CBC7C020020DD4E0008D9
:1031FC0030B401250024074B0749DA8983F849517B
:10320C0083F84B4142F08002022030BCDA81D96154
:10321C0004F006BC7C020020B559000830B401252E
:10322C000024074B0749DA8983F8495183F84B414D
:10323C0042F08002022030BCDA81D96104F0F0BB8C
:10324C007C0200209152000838B502250C4C0D4B25
:10325C0094F82F110C480131E36184F84951FFF7C0
:10326C00F3FA0023D4F8302140F08001E1812846A4
:10327C00A26084F84B31BDE8384004F0D1BB00BFEC
:10328C007C020020016000081CA70008F0B44E4826
:10329C00D0F84C31D0F8A82023F07F43934290F81B
:1032AC004F7140F08E80002341F2210190F85121A2
:1032BC0090F85061120490F89A5142EA062290F864
:1032CC0052613A4342EA0662446805F0FC05C0F8D4
:1032DC009C2145F00102A4F5905490F80DC0077B99
:1032EC0080F89A2190F85B6190F85C210C3CC0F856
:1032FC00944146EA022680F899C180F8987100F54D
:10330C00A67200F25B1412F8017B83EA07231FB24A
:10331C00BBB2002FACBF5B0081EA43039BB21F041E
:10332C0054BF5B0081EA43039BB21F0454BF5B0094
:10333C0081EA43039BB21F0454BF5B0081EA430341
:10334C009BB21F0454BF5B0081EA43039BB21F0472
:10335C0054BF5B0081EA43039BB21F0454BF5B0064
:10336C0081EA43039BB21F0454BF5B0081EA430311
:10337C00A2429BB2C7D19E4202D00120F0BC704742
:10338C0090F8593190F8581190F857211B0443EAE2
:10339C00012390F85A11134343EA0163D0F85421E6
:1033AC0090F8541145F0030580F89A5180F8A0115B
:1033BC001B121212C0F8A831C0F8A421F0BC0220D4
:1033CC0070474FF0FF30D9E77C0200202DE9F8431D
:1033DC0040220021264805F092F8202200212548A1
:1033EC0005F08DF820220021234805F088F80723EA
:1033FC0003254FF03F09214CDFF88480A4F8A0305E
:10340C0004F1400704F1800629464046FFF722FAF2
:10341C000135062D47F8040B26F8029BF4D14FF426
:10342C007A730E25238484F8225004F06DF96423FA
:10343C0000F00F00238584F82A5084F8230004F050
:10344C0063F90A221B2300F00F00228684F8323025
:10345C0084F82B0004F058F900F00F0084F83300C6
:10346C0003F05AFA6063E0626062BDE8F88300BF63
:10347C00BC020020FC0200209C0200207C020020E8
:10348C0028A700082DE9F04F844C8FB094F84931EF
:10349C0094F84B21D9071ED4814913F0020F814DAA
:1034AC0018BF0D460B2A09DD94F84C61B70705D1FE
:1034BC0006F0E006602E10D0A02E0ED003F02CFAF1
:1034CC002A460146784804F045FE002084F84B015A
:1034DC000FB0BDE8F08F754DE4E7D4F818C1D4F8FF
:1034EC004D319C45EAD194F85131A2F1040A05936F
:1034FC0003F00F031A460832524506930492DDDCA2
:10350C0080F2F7826A4909338A5C0B910D9204931D
:10351C0094F8533194F85271D4F81CB147EA03274C
:10352C00A7EB0B07BFB25F440397DFF88C919DF8B4
:10353C000C70D9F80000D9F80410D9F80820D9F883
:10354C000C30DFF878E107974FEA1C270C97AEE8B0
:10355C000F0003994FF00008C1F3072208920A46A6
:10356C00DFF85CB1100EC1F3074109910A90079F77
:10357C004FEA1C4ECBE900884FEA1C638BF806C05F
:10358C004FF0490C8BF80A708BF800C0CBF80C800C
:10359C000C9F8BF808E08BF807708BF80930089BB0
:1035AC0009F156018BF80B30099B5FFA8AF98BF8FD
:1035BC000C300A9B1FFA8AF28BF80D304FF0010386
:1035CC0002208BF805308BF80F90FFF74BF90B9B13
:1035DC0053F80A301BBA98427FF470AFD4F81C3100
:1035EC00039A934240F28B82FFF668AF013B934201
:1035FC007FF464AF94F82431002B3FF45FAFA02E1E
:10360C007FF45CAF01230393B4F8AC3043F01003A8
:10361C00A4F8AC30002394F9252184F8B230803220
:10362C0084F8263118BFF423E18918BF84F82531BA
:10363C00204A01F0070303EB430094F90C30C1F36B
:10364C00C1011044A3F14006FFF7FEF8A0F18D0371
:10365C00F31A23EAE37384F82831069B002B00F05D
:10366C008580069500261D46DFF8588018F8063030
:10367C00023B102B79D8DFE813F03A0291012501B7
:10368C00EB005A013C017800780078007800780053
:10369C0078007800780078005F0127007C02002019
:1036AC008CA9000880A9000890A9000888A9000826
:1036BC00C803002040A7000872030020BC010020B2
:1036CC006C020020D0030020B4F8AC309A0749D427
:1036DC00A94A43F00203915D94F83621A4F8AC306A
:1036EC0084F88C11002A00F083824FF4FA40731C8A
:1036FC0008EB0302577818F803104FF47A7241EA7A
:10370C000721C1EB01114900002381FB0001FCF7EB
:10371C0017FD0C27002263680321A3F57913A3F589
:10372C007853203B1844C4F894019448A4F8B4206E
:10373C00A4F8B82084F8352184F89A71FFF78EF834
:10374C004FF47073B3FBF0F3D4F894110533DBB280
:10375C00A3F1080201F57A1100FB121284F88D31E5
:10376C00C4F890210436AE4280DB069D059B03987D
:10377C00C3F34016002840F0D2810D9A531C00F080
:10378C00D6810499AAEB0107002F3CDD7C4B01216B
:10379C00A3F1100C002A08BF6346CBE90000CBF85C
:1037AC000C000798D4F818218BF80A0008984FEAF7
:1037BC00122C8BF80B0009984FEA12488BF80C006E
:1037CC000A984FEA126E8BF807C08BF80D008BF835
:1037DC0006208BF808808BF809E08BF80F108BF81B
:1037EC0000108BF80510186859689A68DFF8A8C1A2
:1037FC00DB68ACE80F000B98049BBAB21844014686
:10380C000420FFF72FF894F8482194F8493142B17D
:10381C00002E14BF8022402213430D9A013200F077
:10382C008D819DF8102043F01003A9EB020984F858
:10383C004B9184F84A2184F8493103F06DF80096D5
:10384C0001460D9B2A464F4804F084FC01203FE6BC
:10385C006423B11C08EB0102577818F801003F04EF
:10386C0012F8011C47EA002792780F4347EA0267D7
:10387C003F0A03FB07F74448444A381890424FF07C
:10388C008002434B43489B5D84F8342103F00F03C3
:10389C0003F101010C9300F26481FEF7D5FF94F85B
:1038AC003421FF2818BF42F0020242F001020C9BA7
:1038BC0084F83421832A04BF84F82F31C4F8307182
:1038CC00053650E7324B9B5DFF2B05D1B4F8AC208D
:1038DC0042F04002A4F8AC2003F00F0384F8A330AC
:1038EC0003F01AF801230236C4F8A40084F82D3131
:1038FC0039E76422B01C08EB00014B7818F8000083
:10390C001B0443EA002311F8010C8978034343EAB2
:10391C0001631B0A02FB03F31B491C4A5918914211
:10392C0040F22E81802384F82E3106361BE70123CA
:10393C001E4484F82A3116E76422701C08EB00013F
:10394C004B7818F800001B0443EA002311F8010C13
:10395C008978034343EA01631B0A02FB03F30A4918
:10396C000A4A5918914296BFC4F8443180238123E6
:10397C00043684F83731F6E6D303002058A7000844
:10398C0082030020C4A9000840AA8FCCC0CF6A00D3
:10399C00D10300201CA70008BC01002001279E4A6F
:1039AC00B31CD11C885D08EB030C10F0F00F915D7B
:1039BC0018F803309CF8012006F1050684F82971EB
:1039CC0040F0128143EA02231AB293B2002B00F0AA
:1039DC000B81B4F8A00033EA000040F00581D80751
:1039EC0004D5206C10B922F001039BB29F0705D5BA
:1039FC00626C1AB923F002031B041B0C580705D583
:103A0C00A26C1AB923F004031B041B0C1A0705D56E
:103A1C00E26C1AB923F008031B041B0CDF0605D556
:103A2C00226D1AB923F010031B041B0C980605D544
:103A3C00626D1AB923F020031B041B0C5A0605D522
:103A4C00A26D1AB923F040031B041B0C1F0605D5ED
:103A5C00E26D1AB923F080031B041B0CD80505D5A5
:103A6C00226E1AB923F480731B041B0C9A0505D51E
:103A7C00626E1AB923F400731B041B0C5F0505D589
:103A8C00A26E1AB923F480631B041B0C180505D510
:103A9C00E26E1AB923F400631B041B0CDA0405D57F
:103AAC00226F1AB923F480531B041B0C9F0405D5F9
:103ABC00626F1AB923F400531B041B0C580405D570
:103ACC00A26F1AB923F480431B041B0CDA0B03D02E
:103ADC00E26F0AB9C3F30E03A4F8A030090901314F
:103AEC004E48FEF7B1FE012384F826313BE603363F
:103AFC0039E64FF0FF330D93494B0B9308E517460E
:103B0C00A02E07F10107C4F81C7122D0059B84F884
:103B1C00248113F0100322D0CDF80C8074E594F8B6
:103B2C00482194F84931002A3FF477AE70E694F8B6
:103B3C00482194F84931002A7FF46AAE002243F000
:103B4C00200384F84931049B84F84B2184F84A31D2
:103B5C0073E62023CDF80C8084F8243154E50393CC
:103B6C0058E5FEF771FE94F83421FF2818BF42F097
:103B7C0002024FF000070C9B18BF84F8342199E621
:103B8C008020254A915D04320F29975D84F82E011F
:103B9C003FF6CBAE2348244A181890422ED843F057
:103BAC0002034FF6FF703A09C2F10F0207F00F073C
:103BBC0000FA07F740FA02F23A4092B20120002ACA
:103BCC0008BF3F228327B4F8A0E0884001F1400CE5
:103BDC0040EA0E00103124F81C2044F82130A4F8DF
:103BEC00A00084F82E71A0E6002384F8293175E733
:103BFC0040F2F9410D4804F04BFC76E50C480D4AB7
:103C0C001818904204D90C480C4A18189042C8D87D
:103C1C0043F00103C5E700BFD10300201CA7000837
:103C2C00C803002040022ECC90D00300B4A9000899
:103C3C00005F43CCC0270900606E29CCE0930400E0
:103C4C0038B502250C4C0D4B94F82F110C48013152
:103C5C00E36184F84951FEF7F7FD0023D4F83021D5
:103C6C0040F08001E1812846A26084F84B31BDE828
:103C7C00384003F0D5BE00BF7C020020394F00084D
:103C8C001CA7000870B5304CB4F8AC3013F0900F92
:103C9C0052D1002223F4C15323F00103A4F8AC3019
:103CAC0084F8A32084F8482184F8B22003F02CFD7A
:103CBC000E210522254B84F8AF10A3FB00135B08E3
:103CCC0003EB4303C31A84F8A23084F8B020FFF747
:103CDC007DFBB4F8AC301B0504D54FF434711C4893
:103CEC0004F0D6FB666A03F00FFD054603F00CFDED
:103CFC0040EA052000B282B2B2F5FA4F08D94FF46F
:103D0C00FA431449A1FB0251C90A03FB112292B2D6
:103D1C004FF4FA4300F0070003FB0063B4F8AC1057
:103D2C0013440D4841F004020C492360A4F8AC2064
:103D3C0002F02CFE012070BD40F24F71044804F0DB
:103D4C00A7FBB4F8AC30A4E77C020020ABAAAAAA6B
:103D5C00B4A90008D34D621090020020554C000805
:103D6C0038B5234CD4F818313BB1B4F8AC305A0701
:103D7C0003D413F040020AD038BD40F209711D483B
:103D8C0004F086FBB4F8AC3013F04002F4D194F894
:103D9C008C1123F08003103154F8215043F00103AF
:103DAC00042125F003051448A4F8AC3084F89A21BA
:103DBC0084F8242184F8482184F84B21A560FEF76F
:103DCC0043FD40F48C50E08102F0A6FD00F57B131E
:103DDC0003F5745319460948094AC4F894316360D1
:103DEC0002F010FEBDE83840032003F019BE00BFFE
:103DFC007C020020B4A900081CA700089002002037
:103E0C004D4D00082DE9F041002637463546DFF8C8
:103E1C0014E1DFF814C1AEF5AA74D4F89C21D4F8DF
:103E2C001831110A62F3070761F30F27110C63F3C2
:103E3C00070561F31747120E190A62F31F6761F346
:103E4C000F251A0C62F317451B0E63F31F65CEE9A1
:103E5C000066C4F84C71C4F85051AEF10801102240
:103E6C003046CCE90066CCE90266FEF7FBFC40F676
:103E7C00FF724FF4FA4094F8397194F84D1194F89C
:103E8C004C31C7F107052A4143EA01231340C3EB28
:103E9C0003135B00A3FB00014FF47A720023FCF7C1
:103EAC004FF90123D4F89451BB4005F5843505F541
:103EBC0080750233054413F0FF0384F83A61C4F8AB
:103ECC003C5194F83871B4F9B48026D0B4F9B600EA
:103EDC0003FB08F803FB00F34FEAD818DB0994F84E
:103EEC003501B4F9B860394600FB06360C48FEF7CC
:103EFC00B5FCB6FBF0F33946053309482374FEF7DD
:103F0C00ADFC237CA5EB0805A0EB80002D1A84F8F2
:103F1C003B31C4F84051BDE8F081B4F9B630DEE76E
:103F2C0058A70008D0030020BC01002040F2026317
:103F3C0040F202422DE9F048354CB4F8AC100B407D
:103F4C0093425CD0237C072B4AD0617C3148FEF72E
:103F5C0085FC0523B4F8BA6023747EB300270023D4
:103F6C00B6B2B20012EB060B43EB070C4FEACB05D3
:103F7C004FEACC01AA1B41EA5B7161EB0703150107
:103F8C00190115EB060B41EA127141EB070C0B46BC
:103F9C004FEA0C254FEA0B2145EA1B658B46FA21AB
:103FAC0001FB00F14FEA1B4242EA05428A4297BFED
:103FBC00B2FBF0F3FF230533DBB223742168164AFE
:103FCC0001F51C3101F5807101EBC00103FB1013ED
:103FDC0012486360A3F14001BDE8F04802F012BD45
:103FEC0008232168237401F51C3101F1FB05656080
:103FFC00094ABB310948BDE8F04802F003BDFFF7A0
:10400C0001FFB4F8AC3043F40073A4F8AC3099E77A
:10401C007C02002058A700082932000890020020DA
:10402C0038B540F2026340F202424FF4FA45264C96
:10403C00B4F8AC0094F827110340934205FB01F54A
:10404C0038D0237C072B28D0617C2048FEF706FC57
:10405C000523B4F8BA20237482B1FA21A2FB0523FC
:10406C0001FB00F14FEA124C4CEA034C8C4597BF14
:10407C00BCFBF0F3FF230533DBB223742168144A35
:10408C000D4405EBC00503FB10531248A3F140018E
:10409C006360BDE8384002F0B5BC08232168237486
:1040AC0029444D1F65600A4A45390A48BDE8384025
:1040BC0002F0A8BCFFF7A6FEB4F8AC3043F40073D2
:1040CC00A4F8AC30BDE700BF7C02002058A7000864
:1040DC00FD3100089002002010F0070230B43BD0F4
:1040EC00941D042A4FEA840486BFA4F10803DDB2B0
:1040FC002546C4EBC104010604F11C0358BF04F1AE
:10410C002C03010A18BF143B002B35DD2B44013B5B
:10411C0093FBF5F3C0F34111053103FB01F39B0055
:10412C0051330132C0F3C100101AC0B2042843F657
:10413C0009521ED9043842FA00F000EBD071024645
:10414C00042049104FF4FA4403FA00F004FB001069
:10415C0030BCB0FBF2F070474FF47A3001F10B0435
:10416C0000FB04F030BC054B0009A3FB0030C00978
:10417C00704741F68461E5E75123D2E7C55A7C0AC2
:10418C002DE9F04F8DB002F0C7FBCA4C8346B4F852
:10419C00AC3013F0020200F09280D4F89021811A16
:1041AC00403140F0748113F03C0F40F09F819E052C
:1041BC0040F1BE81D4F840310BF14007DA1B002AE4
:1041CC0080F2958494F83A21150600F1B18101260C
:1041DC0094F8393106FA03F3D9B20A44D3B218066B
:1041EC0084F83A3100F1A481B34D10E094F83A21EF
:1041FC00110600F19D8194F8393106FA03F3D9B216
:10420C005318DBB21A0684F83A3100F19181C3EBF2
:10421C00031802330B44D4F83C2194F838A14FEA2C
:10422C00884813F0FF03284602EBD818B4F9B49071
:10423C005146B4F9B6C007D009FB03F90CFB03F3E4
:10424C004FEAD9194FEAD31C94F83531B4F9B8B008
:10425C00A8EB090803FB0BCBFEF700FBBBFBF0FB49
:10426C0051460BF1050B284684F810B0FEF7F6FA10
:10427C00A0EB8000A8EB0000227CC11B0029C4F835
:10428C00400184F83B21B1DB034694F83811D4F893
:10429C00445101318948C4E901352274FEF7D4FA3E
:1042AC000023616840F08005854A86484039E581E5
:1042BC0084F84B310DB0BDE8F04F02F0A3BB13F006
:1042CC003C0F00F0F38013F024030392029300F0F0
:1042DC00148102F021FB01467B4803F03BFFB4F84C
:1042EC00AC301F0540F114810F250BF15B5707F51E
:1042FC003A17EE0740F11A81636ABB4200F016814F
:10430C0002F00AFB636A01460022704803F022FFA8
:10431C00D4F8249015F0020E00F00681E36A4B45A8
:10432C0000F0008102F0F8FAE36A014601226748C6
:10433C0003F010FF4FF0010E7646D4F82C9068076E
:10434C000FD5636B99450CD002F0E6FA636B01460E
:10435C0002225E4803F0FEFE4FF0020E7646D4F8C1
:10436C003490EB080FD0E36B99450CD002F0D4FAE3
:10437C00E36B01460322554803F0ECFE4FF0030EAD
:10438C007646D4F83C900121102206F1040894F8EA
:10439C00B0C004EBC8030CF00F0CDB78B4F8A00031
:1043AC0001FA0CFC591CC9B20F29A3F10F0394BFDD
:1043BC000B46DBB240FA03F1C90703F1400A02F1E4
:1043CC00FF320DD534F81AA003F110011AEA0C0FC4
:1043DC0006D054F8211001F00301714500F0C8809B
:1043EC0012F0FF02DED102F097FA3246014638484D
:1043FC0003F0B0FE0123B34025EA03056BB2DDB236
:10440C00002B7FF476AFB4F8AC30C4F8009023F4F2
:10441C000063A4F8AC3002F07FFA4A4601462D48FE
:10442C0003F098FE94F8A3301BB9B4F8AC30DD055A
:10443C0008D5D4F8A450A9EB0503002BC0F2828157
:10444C00B4F8AC3098070CD5234A24490298039E43
:10445C00002818BF0A46A9EB06031344002B00F3EF
:10446C008D80A9EB0B03402B00F1C08002F054FAB5
:10447C004A4601461A4803F06DFEB4F8AC309A0770
:10448C003FF595AEA9F14001164A0E4812E740F6E9
:10449C001E01154803F0FCFFB4F8AC30D4F89021A1
:1044AC0013F03C0F22D19F073FF581AE0DB0BDE854
:1044BC00F08F00BF7C02002058A700081CA7000842
:1044CC00E931000890020020F8A9000830AA000881
:1044DC0068AA00088CAA000800EE0200006504001F
:1044EC0014AC0008C94B0008B4A90008403A13F0FA
:1044FC002403039202937FF4ECAE02F00DFA014612
:10450C00954803F027FEB4F8AC301F053FF5ECAE30
:10451C00D4F8009002F000FA4A4601468F4803F0A6
:10452C0019FE7FE74FF0000E764608E7B946F1E634
:10453C00002294F88C310421103354F8233088482D
:10454C0023F00303A36084F84B21FEF77DF940F4BC
:10455C008C55022094F88D11D4F89021814BE58173
:10456C0021746260E3610DB0BDE8F04F03F058BAFE
:10457C0004EBC802D37084F8A23044E702F0CCF903
:10458C000146794803F0E6FD03F0BEF8054603F05A
:10459C00BBF840EA052212B291B206F58433B1F5AC
:1045AC00FA4F03F5807308D94FF4FA456F48A0FB16
:1045BC000160C00A05FB101189B24FF4FA4002F0F9
:1045CC000F0200FB023394F8A3005A18B4F8AC3075
:1045DC0028B1D4F8A410511A00297FF7E8AD43F4A0
:1045EC008073A4F8AC30C4F8A420E0E502F094F990
:1045FC0001465F4803F0AEFD029B94F8B050002BCF
:10460C0000F0CA80B4F8AC3013F0200340F03A82CA
:10461C00584884F84C31FDF79DFE5748FDF7A2FE33
:10462C00B4F8F43055481A0A84F85D3184F85E21E8
:10463C00FDF7A0FE132252490A20FEF713F91721A9
:10464C00020AB4F8F43084F86121020C84F8602179
:10465C004C4A013384F86201000E84F85F01A4F81F
:10466C00F43084F84B11E261691C3D48FEF7ECF81C
:10467C0094F8B11020F06003B4F8AC2043EA411375
:10468C009BB222F4196242F40862184694F84B115A
:10469C006574E381A4F8AC20FFF71EFD94F8A260CA
:1046AC000746103654F8266006F0030808F1040596
:1046BC0034F8353004EBC50200FB03B3917853603A
:1046CC0094F8A32026F00306A660A17422B100FA88
:1046DC0002F25A44C4F8A42002F01EF904EBC505FA
:1046EC006B680146CDE900835A463B46264803F0E9
:1046FC0031FD94F8A3303BB102F00EF9D4F8A420AC
:10470C000146224803F026FD1120FDF7C9FE02F0F8
:10471C0003F9B4F8AC2001461D4803F01BFDB4F8B6
:10472C00AC3013F0C10F07D1D4F8182112B95907C6
:10473C0040F1EF81FFF724FD01200DB0BDE8F04FF3
:10474C0003F06EB902F0E8F82A4601461148A94672
:10475C0003F000FD74E600BF14AA0008C0AA00080C
:10476C001CA70008095D00082CAB0008D34D621093
:10477C0050AB0008C9030020D1030020BC0100206D
:10478C00C8030020393F000868AB0008CCAB000818
:10479C00F4AB0008F8AA0008D4F81C31813300F2FD
:1047AC008481D4F8203194F84801029310B9013374
:1047BC0000F07B8140F20241B4F8AC3003F01807F2
:1047CC00102F14BF94F8BEA04FF0000A31EA030377
:1047DC0000F091810926082394F82D1149B14FF06E
:1047EC00040E002104EB030C33468CF84CE184F8E6
:1047FC002D1194F8341169B14FF0050E4FF0000CE7
:10480C00E61801F0030186F84D11023386F84CE1ED
:10481C0084F834C194F82A1181B1FF264FF0060EAA
:10482C004FF0000CE11881F84D6194F8286181F883
:10483C004CE1033384F82AC181F84E6194F82911B4
:10484C0061B14FF0030E4FF0010C0026E11881F816
:10485C004CE1023381F84DC184F8296194F836118A
:10486C0021B11226E11881F84C61013394F826111C
:10487C0094F9256141B1002E03DA00210E4684F82B
:10488C002511002184F8261194F8371171B14FF0DD
:10489C0011084FF0000E04EB030C01F001018CF831
:1048AC004D1102338CF84C8184F837E194F82E11B9
:1048BC0071B14FF007084FF0000E04EB030C01F040
:1048CC0003018CF84D1102338CF84C8184F82EE1E5
:1048DC00102F0EBF04210AF10501C9B25FFA83F84B
:1048EC004144C9B24029059100F2E6800A1FB7F194
:1048FC00100118BF01210A92D2B20691099200212F
:10490C008E42B4BF8C464FF0400C4FF0400E94F8E2
:10491C00249194F82B61D4F8187149EA0606FAB27E
:10492C00A8F1080876B262F30701039246EA08067A
:10493C00C7F307224CEA060662F30F21C7F3074CB4
:10494C006CF317413F0E67F31F61049284F85161B9
:10495C00C4F84D1184F84CE120B9029A013202924C
:10496C00C4F820210021029A84F82411013A96B24D
:10497C00069984F85261360A84F85361002900F0D4
:10498C00A68094F8BD2032B1802284F84C2110B955
:10499C00012284F84821DFF80C925A1C09EB020022
:1049AC0094F8BC20234483F84C21A9F18D01524684
:1049BC000B9003F099FD94F8BC30002B40F0EA808A
:1049CC00A9F156084346D4F82021D4F81871013ABD
:1049DC00D1B20291C2F307210691C2F30741120E24
:1049EC000892FAB20392C7F30722C7F3074C079158
:1049FC0004923F0EBAF1000F40F08E80684E4FF0DB
:104A0C00000E4FF0490A86F808C07772029BD8F85E
:104A1C000000B372069BD8F80410F372D8F8082083
:104A2C00D8F80C30DFF890C1C6F800E0ACE80F0005
:104A3C00DDF82880C6F804E0C6F80CE086F805E03E
:104A4C00099F1FFA88F2F773039F5649B771049FA9
:104A5C000220F771079F3773089F86F800A07773C1
:104A6C00FDF700FF09EB0803070A060C9F70D870CE
:104A7C005E704D4A059B010E09F8081084F84B3105
:104A8C00E261F1E594F8B260484F08E029463846F7
:104A9C00FDF7DAFEFF281CBF05F1FF35EDB2013E34
:104AAC00F6B2FF2EF2D1C023B2E5414941480DB018
:104ABC00BDE8F04F01F06ABF002208F10401069234
:104ACC00CAB20592043ACDF824800A9217E7D3B201
:104ADC000293C2F30723DFF8CC900693C2F307438B
:104AEC000793130EA9F1560808932D4E87E794F8F7
:104AFC003B21FFF7CABB102694F8391194F83831D2
:104B0C0084F8546143EA011384F855310B260A23C7
:104B1C0062E6FFF7B7F80FE60022214EDFF898E0C7
:104B2C00C6E90022F2607271039A1868B271049A95
:104B3C005968F2719A68DB6886F808C0AEE80F0015
:104B4C000B997772029B5246B372069B0420F37248
:104B5C00079B3373089B73734FF00103F37333702C
:104B6C00FDF780FED4F82021D4F81871013AD3B2A5
:104B7C000293C2F307230693C2F307430793130E62
:104B8C000893FBB20393C7F30723C7F3074C0493B3
:104B9C003F0E34E7A9F14603A9F1560813E700BF0D
:104BAC006C020020C80300202D4000081CA7000840
:104BBC009D4C000890020020BC01002010B501F0B3
:104BCC00ABFE0D4C0146B4F8AC200C4803F0C2FA15
:104BDC00B4F8AC3013F0C10F08D1D4F818210AB9CD
:104BEC005B0704D5BDE81040FFF7CABA10BDBDE89D
:104BFC001040FFF747B800BF7C020020F4AB000860
:104C0C0010B50820FDF74CFC01F086FE0C4C01465B
:104C1C00B4F8AC200B4803F09DFAB4F8AC3013F0A8
:104C2C00C10F08D1D4F818210AB95B0704D5BDE827
:104C3C001040FFF7A5BA10BDBDE81040FFF722B831
:104C4C007C020020F4AB000810B50520FDF728FC11
:104C5C0001F062FE0C4C0146B4F8AC200B4803F09A
:104C6C0079FAB4F8AC3013F0C10F08D1D4F818218C
:104C7C000AB95B0704D5BDE81040FFF781BA10BD37
:104C8C00BDE81040FEF7FEBF7C020020F4AB00082C
:104C9C00F8B5284C002002F0C3FE04F1140001F01A
:104CAC003DFE4FF4D8720021204603F028FC02F0A0
:104CBC002BFD054602F028FD8022002301274FF62C
:104CCC00037684F82B21D4F818111B4A40EA0520EE
:104CDC00A4F8F40084F82771A4F83861A4F8AC3077
:104CEC0084F8B13084F82F31C4F83021C4F8442151
:104CFC0009B9FEF7C7FF0C20FDF7D2FB01F00CFE43
:104D0C00B4F8AC2001460D4803F024FAB4F8AC30EA
:104D1C0013F0C10F08D1D4F818210AB95B0704D5D8
:104D2C00BDE8F840FFF72CBAF8BDBDE8F840FEF737
:104D3C00A9BF00BF7C02002008E6D333F4AB000807
:104D4C0070B55C4C002002F06BFE04F1140001F015
:104D5C00E5FD94F84B31002B00F09F80112B4FD1C7
:104D6C00002341F22100544994F85361CD1D11F8F0
:104D7C00012B83EA02231AB293B2002AACBF5B0068
:104D8C0080EA43039BB21A0454BF5B0080EA4303DE
:104D9C009BB21A0454BF5B0080EA43039BB21A0413
:104DAC0054BF5B0080EA43039BB21A0454BF5B0000
:104DBC0080EA43039BB21A0454BF5B0080EA4303AE
:104DCC009BB21A0454BF5B0080EA43039BB21A04E3
:104DDC0054BF5B0080EA43038D429BB2C7D1DBB268
:104DEC009E4213D00023032084F84B3102F018FEAE
:104DFC00D4F89411314A3248BDE8704001F002BE3B
:104E0C0040F2FD312F4803F043FBA9E7FEF73EFAD1
:104E1C000028E7DD002394F89A21032142F00C02CC
:104E2C00294884F89A21A4F8B430A4F8B83084F84E
:104E3C003531FDF713FD4FF4D073B3FBF0F3D4F819
:104E4C0094210533DBB202F57A12A3F1080100FBC1
:104E5C0011210220B4F8AC2084F88D3122F001022B
:104E6C000243C4F89011A4F8AC20FDF719FB01F033
:104E7C0053FDB4F8AC200146144803F06BF9B4F8B8
:104E8C00AC3013F0C10F10D1D4F818210AB959075E
:104E9C000CD5BDE87040FFF773B9B4F8AC30012005
:104EAC0023F00303A4F8AC30DFE770BDBDE870401D
:104EBC00FEF7E8BE7C020020C80300204D4D000820
:104ECC0090020020B4A9000858A70008F4AB000811
:104EDC0010B5144C94F84B312BB1042384F84931A0
:104EEC00FEF7D0FAB0B901F017FDB4F8AC200146CA
:104EFC000D4803F02FF9B4F8AC3013F0C10F08D102
:104F0C00D4F818210AB95B0708D5BDE81040FFF7A3
:104F1C0037B910BD0D20FDF7C3FAE4E7BDE810402A
:104F2C00FEF7B0BE7C020020F4AB0008F8B5CC4C08
:104F3C0094F84B3163B1B4F8AC301B063ED5FEF798
:104F4C00A1FA002858D194F84931DA073FD5F8BDB9
:104F5C0084F8493101F0E0FC00F5BB3602F0D4FBDB
:104F6C00054602F0D1FB40EA052000B283B2B3F54E
:104F7C00FA4F06F5807608D94FF4FA41B94AA2FBEC
:104F8C000352D20A01FB12339BB24FF4FA4200F0E7
:104F9C00010002FB006094F8A3201844B4F8AC3074
:104FAC0022B1D4F8A420821A002A05DD43F48073C0
:104FBC00A4F8AC30C4F8A4001D0604D440F27771F8
:104FCC00A94803F065FA94F84B31002BB7D194F84B
:104FDC004831002B4CD0072B40F2C680602384F85C
:104FEC00493194F9253113F1800F1CBF013384F83A
:104FFC0025310023A4F84A31B4F8AC3094F8492197
:10500C0023F08801A4F8AC10510701D0DA046BD45A
:10501C000A20FDF745FA01F07FFCB4F8AC200146FC
:10502C00924803F097F8B4F8AC3013F0C10F07D1E5
:10503C00D4F8182112B95E0740F10E81FFF7A0F8E1
:10504C0094F92531182B17DC94F83631002B3FF4EA
:10505C007EAFB4F8AC20900768D4013BDBB284F887
:10506C003631002B7FF473AFBDE8F840FEF778BE05
:10507C00202384F84931B4E794F8B0507C48294691
:10508C00FDF7E2FBFF2894F8B0201CBF05F1FF35BB
:10509C00EDB2AA424FF00C02B4F8AC304FF00E0057
:1050AC0018BF43F4006343F4815318BF84F8B05025
:1050BC00A4F8AC3084F82521FDF7F2F901F02CFCB2
:1050CC00B4F8AC200146694803F044F8B4F8AC30AD
:1050DC0013F0C10FB8D1D4F8182112B95D0740F103
:1050EC00CD80FFF74DF8AFE723F4845323F008038A
:1050FC000F20A4F8AC30FDF7D3F901F00DFCB4F897
:10510C00AC200146594803F025F8B4F8AC3013F044
:10511C00C10F7FF47DAFD4F8182122B95F0702D4F8
:10512C00FEF7B0FD74E7FFF72BF871E70220FDF7EF
:10513C00B7F901F0F1FBB4F8AC2001464B4803F091
:10514C0009F8B4F8AC3013F0C10F09D1D4F8182118
:10515C0022B9590702D4FEF795FD01E0FFF710F8CC
:10516C00002384F83631F8BD0133DBB241481946CF
:10517C0084F8483194F8B060A0F15C07FDF764FB4B
:10518C00054608E031463846FDF75EFBFF281CBF9C
:10519C0006F1FF36F6B2013DEDB2FF2DF2D194F8D7
:1051AC00B030B34207D0B4F8AC3084F8B06043F4FC
:1051BC000063A4F8AC30666802F0A6FA054602F06B
:1051CC00A3FA40EA052000B281B2B1F5FA4F08D932
:1051DC004FF4FA42234BA3FB0153DB0A02FB1313DC
:1051EC0099B24FF4FA45244AC0B2A2FB00325208DD
:1051FC0002EB4203C31ADBB205FB036394F8A30072
:10520C000B44B4F8AC2020B1D4F8A410591A0029DE
:10521C0003DDC4F8A43042F4807222F08002A4F8BA
:10522C00AC2001F079FBB4F8AC2001460F4802F039
:10523C0091FFB4F8AC3013F0C10F7FF488AED4F802
:10524C0018212AB9580703D4BDE8F840FEF71ABD57
:10525C00BDE8F840FEF794BFFEF714FDF0E600BF82
:10526C007C020020D34D6210B4A90008F4AB0008F6
:10527C001CA7000878A70008ABAAAAAAFEF702FD93
:10528C00E2E600BF2DE9F843614C94F84B51002D38
:10529C0045D0D4F8483103F0FF23B3F5807F00F0FC
:1052AC008580B4F8AC301B0640F19682112D00F0CD
:1052BC00BB80212D00F0B88094F84931D8072ED44A
:1052CC00B4F8AC305A0700F185809F0640F18A8211
:1052DC00092094F8B22023F0A003092A98BF0132C8
:1052EC00A4F8AC3098BF84F8B220FDF7D9F801F0DF
:1052FC0013FBB4F8AC200146464802F02BFFB4F87F
:10530C00AC3013F0C10F40F03483D4F8182112B92B
:10531C005E0740F1D782BDE8F843FEF731BF94F841
:10532C002F113D48FDF79AFA0523B4F8BA6023749F
:10533C0056B30027B6B2B21947EB070312EB0608B7
:10534C0043EB07094FEA0815AA1B4FEA091161EB59
:10535C000703D900D50041EA5271AA1B61EB070380
:10536C0051028846FA2101FB00F15D0245EAD25553
:10537C004FEA184242EA05428A4297BFB2FBF0F369
:10538C00FF230533DBB223742168244A01F53B313A
:10539C0001F5007101EBC00103FB10132048A3F1D0
:1053AC0040016360BDE8F84301F02CBB40F2B25100
:1053BC001C4803F06DF8B4F8AC30190640F10C82BF
:1053CC0094F84B51002D7FF471AFB4F8AC305A0700
:1053DC007FF57BAF94F8A22023F080030132D2B288
:1053EC00032A08BF002284F8A22094F848219BB21B
:1053FC000132D2B2D507A4F8AC3084F8482100F1C0
:10540C00F98194F8B050002D40F04D820126F2E164
:10541C007C020020F4AB000858A7000855320008A5
:10542C0090020020B4A9000894F84C3103F0E30377
:10543C00202B7FF441AFDE48DE4FFCF79BFF6A1E4A
:10544C00394692B20020FDF70DFA07F1FF38D84823
:10545C002E1FFCF78FFF4146B2B20A20FDF702FA6D
:10546C0058F806301BBA98427FF426AF94F85231A4
:10547C0094F8512194F850111B0443EA0223D4F8F8
:10548C0053210B43C4F8A830C4F81821FDF79EFF34
:10549C00112D40F2F580642594F8592194F8583177
:1054AC0094F85A1143EA022394F85B2143EA01432E
:1054BC0043EA02631B0A05FB03F5BF4BBF4A2B44AF
:1054CC00934219D8BE4BBF4A2B44934200F206823A
:1054DC0045F002033F21B4F8A020E36442F0080336
:1054EC00A4F8A030A4F8861001F016FA2B46014659
:1054FC000322B54802F02EFE642594F85C2194F842
:10550C005B3194F85D1143EA022394F85E2143EA7F
:10551C00014343EA02631B0A05FB03F5A64BA74AAA
:10552C002B44934219D8A64BA64A2B44934200F223
:10553C00F98145F002033F21B4F8A020236542F025
:10554C001003A4F8A030A4F8881001F0E5F92B465C
:10555C00014604229C4802F0FDFD642594F85F216D
:10556C0094F85E3194F8601143EA022394F86121B7
:10557C0043EA014343EA02631B0A05FB03F58E4B26
:10558C008E4A2B44934219D88D4B8E4A2B4493420E
:10559C0000F2BC8145F002033F21B4F8A020636502
:1055AC0042F02003A4F8A030A4F88A1001F0B4F95A
:1055BC002B4601460522844802F0CCFD642594F864
:1055CC00622194F8613194F8631143EA022394F850
:1055DC00642143EA014343EA02631B0A05FB03F51A
:1055EC00754B764A2B44934219D8754B754A2B440C
:1055FC00934200F2A38145F002033F21B4F8A020AE
:10560C00A36542F04003A4F8A030A4F88C1001F07C
:10561C0083F92B46014606226B4802F09BFD64255C
:10562C0094F8652194F8643194F8661143EA0223E6
:10563C0094F8672143EA014343EA02631B0A05FB22
:10564C0003F55D4B5D4A2B44934219D85C4B5D4A84
:10565C002B44934200F24E8145F002023F21B4F8F4
:10566C00A030E26543F08003A4F8A030A4F88E10BB
:10567C0001F052F92B4601460722534802F06AFD0D
:10568C00524D00260121A8460222B4F8F430B7F896
:10569C0004C0013B38689BB284F8FD301B0AC4F887
:1056AC00FE6084F8F6106E6084F8FE3025F803CCAA
:1056BC00C4F8F70058F8080D0835D8F80C30D8F8AD
:1056CC000810D8F80470C4F80601EB60A9606F608C
:1056DC00374884F80621FCF74DFE4146102230462F
:1056EC00FDF7C0F83248FCF745FE1022294630463B
:1056FC00FDF7B8F8B4F8AC2012F0240F00F0E680F7
:10570C00910616D594F8B06094F8B250304F08E07A
:10571C0031463846FDF798F8FF281CBF06F1FF36D6
:10572C00F6B2013DEDB2FF2DF2D1B4F8AC2084F805
:10573C00B06000234FF474460525032022F429722F
:10574C0022F0020294F85711A4F8AC2084F84831E6
:10575C00204A84F8B23084F82A3184F8293184F84C
:10576C002E3184F8343184F82C3184F82D3184F8BE
:10577C00373184F8AE30C4F81C31C4F8203184F8C9
:10578C00263194F8583101F00F0184F82F11A4F848
:10579C00246184F88C5184F83801C4F83021C4F8A1
:1057AC00442103B9012384F8273106209DE500BF6D
:1057BC00BC010020C903002040AA8FCCC0CF6A00D6
:1057CC0040022ECC90D003006CAC00087A03002071
:1057DC001CA7000808E6D33340F2B351664802F028
:1057EC0057FEEDE54FF4B761634802F051FEB4F893
:1057FC00AC306DE5002623F40063A4F8AC3001F066
:10580C008BF84FF0FF08656A94F8B020431B15EA3B
:10581C00230538BF054648FA02F801F075FF074624
:10582C0001F072FF40EA072000B283B2B3F5FA4FE1
:10583C005FFA88F808D94FF4FA41504AA2FB037278
:10584C00D20A01FB12339BB2B8F1000F09D0C0B2DF
:10585C00B0FBF8F24FF4FA4108FB1200C0B201FBA6
:10586C00003305F5BB3505F580751D4425607EB903
:10587C0001F052F822680146414802F06BFC01F03D
:10588C004BF801463F4A4048BDE8F84301F0BAB82E
:10589C0001F042F801463D4802F05CFC01F03CF896
:1058AC003B4A411CEFE729463A48FCF7CDFFFF285D
:1058BC001CBF05F1FF35EDB284F8B050B4F8AC3034
:1058CC00002698E7BDE8F843FEF7DCB940F20C611E
:1058DC00294802F0DDFDB4F8AC2011E72E4B2F4A1D
:1058EC002B44934236D92E4B2E4A2B44934231D91A
:1058FC002B46EFE5284B294A2B4493422DD9284BB4
:10590C00284A2B44934228D92A46A7E6224B234AFD
:10591C002B44934227D9224B224A2B44934222D91F
:10592C002B4639E61C4B1D4A2B44934218D91C4B71
:10593C001C4A2B44934213D92B46FCE5164B174AB1
:10594C002B44934212D9164B164A2B4493420DD931
:10595C002B4652E645F00103BCE545F001027DE61D
:10596C0045F00103E7E545F0010315E645F00103B9
:10597C0043E6BDE8F88300BFB4A90008D34D62101C
:10598C0048AC0008C94B00089002002034AC000859
:10599C000D4C00081CA70008005F43CCC027090071
:1059AC00606E29CCE0930400F8B5CA4C94F84B31E6
:1059BC005BB1B4F8AC30180637D5FDF763FD0028A1
:1059CC0052D194F84931DB0738D54FF4FA4594F8A5
:1059DC00273194F82F11C04803FB0555FCF73EFF07
:1059EC000523B4F8BA60237486B1FA22A6FB0567C6
:1059FC0002FB00F2330C43EA0743934200F2A78008
:105A0C00B3FBF0F20532D2B2134622742168B34ACA
:105A1C000D4405EBC00503FB1055B148A5F1400141
:105A2C006560BDE8F84000F0EDBF40F27771AD481D
:105A3C0002F02EFD94F84B31002BBED194F8483176
:105A4C00002B00F08780072B40F2C280602384F883
:105A5C00493194F9253113F1800F1CBF013384F8BF
:105A6C0025310023A4F84A31B4F8AC3094F849211C
:105A7C0023F088015207A4F8AC101FD0DF041DD509
:105A8C0023F4845323F008030F20A4F8AC30FCF764
:105A9C0007FD00F041FFB4F8AC200146924802F03B
:105AAC0059FBB4F8AC3013F0C10F07D1D4F818215E
:105ABC0012B95E0740F10481FEF762FB0A20FCF785
:105ACC00EFFC00F029FFB4F8AC200146864802F048
