:020000040800F2
:10000000005000205D4E0008A1130008A313000853
:10001000A5130008A7130008A9130008000000009A
:10002000000000000000000000000000AB1300080A
:10003000AD13000800000000AF1300089D13000876
:10004000A54E0008A54E0008A54E0008A54E0008C4
:10005000A54E0008A54E0008A54E0008A54E0008B4
:10006000A54E0008A54E0008E5120008A54E0008A0
:10007000A54E0008A54E0008A54E0008A54E000894
:1000800009130008A54E0008A54E0008A54E00085B
:10009000A54E0008A54E0008A54E0008A54E000874
:1000A000A54E0008A54E0008A54E0008A54E000864
:1000B000A54E0008A54E0008A54E0008A54E000854
:1000C000A54E0008A54E0008A54E0008A54E000844
:1000D000A54E0008A54E00086D1300088513000802
:1000E000A54E0008A54E0008A54E0008000000001F
:1000F0000000000000000000000000000000000000
:0C01000000000000000000005FF808F1A3
:1001100010B5054C237833B9044B13B10448AFF341
:1001200000800123237010BDF401002000000000B6
:100130002063000808B5034B1BB103490348AFF324
:10014000008008BD00000000F801002020630008C6
:10015000034613F8012B002AFBD1181A0138704707
:1001600081F0004102E000BF83F0004330B54FEA68
:1001700041044FEA430594EA050F08BF90EA020FD5
:100180001FBF54EA000C55EA020C7FEA645C7FEA68
:10019000655C00F0E2804FEA5454D4EB5555B8BF8B
:1001A0006D420CDD2C4480EA020281EA030382EAFC
:1001B000000083EA010180EA020281EA0303362D8E
:1001C00088BF30BD11F0004F4FEA01314FF4801C61
:1001D0004CEA113102D0404261EB410113F0004F73
:1001E0004FEA03334CEA133302D0524263EB43032A
:1001F00094EA050F00F0A780A4F10104D5F1200EC8
:100200000DDB02FA0EFC22FA05F2801841F1000122
:1002100003FA0EF2801843FA05F359410EE0A5F1F6
:1002200020050EF1200E012A03FA0EFC28BF4CF027
:10023000020C43FA05F3C01851EBE37101F00045DD
:1002400007D54FF0000EDCF1000C7EEB00006EEBEA
:100250000101B1F5801F1BD3B1F5001F0CD3490874
:100260005FEA30004FEA3C0C04F101044FEA4452CB
:1002700012F5800F80F09A80BCF1004F08BF5FEA52
:10028000500C50F1000041EB045141EA050130BD32
:100290005FEA4C0C404141EB010111F4801FA4F1D5
:1002A0000104E9D191F0000F04BF01460020B1FA2A
:1002B00081F308BF2033A3F10B03B3F120020CDA62
:1002C0000C3208DD02F1140CC2F10C0201FA0CF040
:1002D00021FA02F10CE002F11402D8BFC2F1200CA5
:1002E00001FA02F120FA0CFCDCBF41EA0C0190405B
:1002F000E41AA2BF01EB0451294330BD6FEA0404A4
:100300001F3C1CDA0C340EDC04F11404C4F120028E
:1003100020FA04F001FA02F340EA030021FA04F3A0
:1003200045EA030130BDC4F10C04C4F1200220FAF7
:1003300002F001FA04F340EA0300294630BD21FA35
:1003400004F0294630BD94F0000F83F4801306BFFB
:1003500081F480110134013D4EE77FEA645C18BFEF
:100360007FEA655C29D094EA050F08BF90EA020F86
:1003700005D054EA000C04BF1946104630BD91EA7E
:10038000030F1EBF0021002030BD5FEA545C05D181
:100390004000494128BF41F0004130BD14F58004C0
:1003A0003CBF01F5801130BD01F0004545F0FE4134
:1003B00041F470014FF0000030BD7FEA645C1ABF69
:1003C000194610467FEA655C1CBF0B46024650EAA0
:1003D000013406BF52EA033591EA030F41F40021CC
:1003E00030BD00BF90F0000F04BF0021704730B552
:1003F0004FF4806404F132044FF000054FF0000127
:1004000050E700BF90F0000F04BF0021704730B5E7
:100410004FF4806404F1320410F0004548BF4042BC
:100420004FF000013EE700BF42004FEAE2014FEA11
:1004300031014FEA02701FBF12F07F4393F07F4FEC
:1004400081F06051704732F07F4208BF704793F0EF
:100450007F4F04BF41F40021704730B54FF4607402
:1004600001F0004521F000411CE700BF50EA010205
:1004700008BF704730B54FF000050AE050EA0102AE
:1004800008BF704730B511F0004502D5404261EB1E
:1004900041014FF4806404F132045FEA915C3FF45F
:1004A000D8AE4FF003025FEADC0C18BF03325FEAFC
:1004B000DC0C18BF033202EBDC02C2F1200300FAAD
:1004C00003FC20FA02F001FA03FE40EA0E0021FAD2
:1004D00002F11444BDE600BF70B54FF0FF0C4CF4C0
:1004E000E06C1CEA11541DBF1CEA135594EA0C0F72
:1004F00095EA0C0F00F0DEF82C4481EA030621EAAD
:100500004C5123EA4C5350EA013518BF52EA0335E7
:1005100041F4801143F4801338D0A0FB02CE4FF099
:100520000005E1FB02E506F00042E0FB03E54FF0C9
:100530000006E1FB03569CF0000F18BF4EF0010EC1
:10054000A4F1FF04B6F5007F64F5407404D25FEABD
:100550004E0E6D4146EB060642EAC62141EA555170
:100560004FEAC52040EA5E504FEACE2EB4F1FD0CB2
:1005700088BFBCF5E06F1ED8BEF1004F08BF5FEA30
:10058000500E50F1000041EB045170BD06F00046E2
:1005900046EA010140EA020081EA0301B4EB5C048F
:1005A000C2BFD4EB0C0541EA045170BD41F4801187
:1005B0004FF0000E013C00F3AB8014F1360FDEBFAC
:1005C000002001F0004170BDC4F10004203C35DA88
:1005D0000C341BDC04F11404C4F1200500FA05F30B
:1005E00020FA04F001FA05F240EA020001F00042AC
:1005F00021F0004110EBD37021FA04F642EB060122
:100600005EEA430E08BF20EAD37070BDC4F10C044B
:10061000C4F1200500FA04F320FA05F001FA04F20F
:1006200040EA020001F0004110EBD37041F10001FB
:100630005EEA430E08BF20EAD37070BDC4F1200506
:1006400000FA05F24EEA020E20FA04F301FA05F26E
:1006500043EA020321FA04F001F0004121FA04F216
:1006600020EA020000EBD3705EEA430E08BF20EAE6
:10067000D37070BD94F0000F0FD101F00046400020
:1006800041EB010111F4801F08BF013CF7D041EAA2
:10069000060195F0000F18BF704703F000465200A6
:1006A00043EB030313F4801F08BF013DF7D043EA77
:1006B0000603704794EA0C0F0CEA135518BF95EA2D
:1006C0000C0F0CD050EA410618BF52EA4306D1D1B4
:1006D00081EA030101F000414FF0000070BD50EAD3
:1006E000410606BF1046194652EA430619D094EA5D
:1006F0000C0F02D150EA013613D195EA0C0F05D147
:1007000052EA03361CBF104619460AD181EA03019A
:1007100001F0004141F0FE4141F470014FF0000052
:1007200070BD41F0FE4141F4780170BD70B54FF0ED
:10073000FF0C4CF4E06C1CEA11541DBF1CEA13556D
:1007400094EA0C0F95EA0C0F00F0A7F8A4EB05044F
:1007500081EA030E52EA03354FEA013100F0888046
:100760004FEA03334FF0805545EA131343EA12630F
:100770004FEA022245EA111545EA10654FEA0026C4
:100780000EF000419D4208BF964244F1FD0404F57D
:10079000407402D25B084FEA3202B61A65EB0305D9
:1007A0005B084FEA32024FF480104FF4002CB6EB96
:1007B000020E75EB030E22BFB61A754640EA0C0016
:1007C0005B084FEA3202B6EB020E75EB030E22BF56
:1007D000B61A754640EA5C005B084FEA3202B6EB97
:1007E000020E75EB030E22BFB61A754640EA9C0056
:1007F0005B084FEA3202B6EB020E75EB030E22BF26
:10080000B61A754640EADC0055EA060E18D04FEAE3
:10081000051545EA16754FEA06164FEAC30343EA83
:1008200052734FEAC2025FEA1C1CC0D111F4801F50
:100830000BD141EA00014FF000004FF0004CB6E749
:1008400011F4801F04BF01430020B4F1FD0C88BFE8
:10085000BCF5E06F3FF6AFAEB5EB030C04BFB6EBF3
:10086000020C5FEA500C50F1000041EB045170BDE6
:100870000EF0004E4EEA113114EB5C04C2BFD4EB13
:100880000C0541EA045170BD41F480114FF0000E97
:10089000013C90E645EA060E8DE60CEA135594EA13
:1008A0000C0F08BF95EA0C0F3FF43BAF94EA0C0F16
:1008B0000AD150EA01347FF434AF95EA0C0F7FF48B
:1008C00025AF104619462CE795EA0C0F06D152EADF
:1008D00003353FF4FDAE1046194622E750EA4106C3
:1008E00018BF52EA43067FF4C5AE50EA41047FF4D4
:1008F0000DAF52EA43057FF4EBAE12E74FEA410237
:1009000012F5001215D211D56FF47873B3EB625261
:1009100012D94FEAC12343F0004343EA505311F088
:10092000004F23FA02F018BF404270474FF000001A
:10093000704750EA013005D111F0004008BF6FF058
:10094000004070474FF00000704700BF4A0011D2CE
:1009500012F5001211D20DD56FF47873B3EB625219
:100960000ED44FEAC12343F0004343EA505323FA25
:1009700002F070474FF00000704750EA013002D19A
:100980004FF0FF3070474FF00000704780F000409C
:1009900002E000BF81F0004142001FBF5FEA410357
:1009A00092EA030F7FEA226C7FEA236C6AD04FEA57
:1009B0001262D2EB1363C1BFD2184140484041409C
:1009C000B8BF5B42192B88BF704710F0004F40F44E
:1009D000000020F07F4018BF404211F0004F41F46A
:1009E000000121F07F4118BF494292EA030F3FD036
:1009F000A2F1010241FA03FC10EB0C00C3F1200349
:100A000001FA03F100F0004302D5494260EB4000D7
:100A1000B0F5000F13D3B0F1807F06D340084FEA42
:100A2000310102F10102FE2A51D2B1F1004F40EB37
:100A3000C25008BF20F0010040EA0300704749009F
:100A400040EB000010F4000FA2F10102EDD1B0FA6A
:100A500080FCACF1080CB2EB0C0200FA0CF0AABF5F
:100A600000EBC25052421843BCBFD04018437047FD
:100A700092F0000F81F4000106BF80F40000013203
:100A8000013BB5E74FEA41037FEA226C18BF7FEADA
:100A9000236C21D092EA030F04D092F0000F08BF1C
:100AA0000846704790EA010F1CBF0020704712F003
:100AB0007F4F04D1400028BF40F00040704712F142
:100AC00000723CBF00F50000704700F0004343F0A7
:100AD000FE4040F4000070477FEA226216BF0846DD
:100AE0007FEA23630146420206BF5FEA412390EAA0
:100AF000010F40F4800070474FF0000304E000BF96
:100B000010F0004348BF40425FEA000C08BF704746
:100B100043F0964301464FF000001CE050EA01020A
:100B200008BF70474FF000030AE000BF50EA01021F
:100B300008BF704711F0004302D5404261EB41010C
:100B40005FEA010C02BF84460146002043F0B64331
:100B500008BFA3F18053A3F50003BCFA8CF2083A56
:100B6000A3EBC25310DB01FA02FC634400FA02FC5F
:100B7000C2F12002BCF1004F20FA02F243EB020066
:100B800008BF20F00100704702F1200201FA02FCC8
:100B9000C2F1200250EA4C0021FA02F243EB0200BB
:100BA00008BF20EADC7070474FF0FF0C1CEAD052FF
:100BB0001EBF1CEAD15392EA0C0F93EA0C0F6FD0C0
:100BC0001A4480EA010C400218BF5FEA41211ED09E
:100BD0004FF0006343EA501043EA5111A0FB01318A
:100BE0000CF00040B1F5000F3EBF490041EAD3715F
:100BF0005B0040EA010062F17F02FD2A1DD8B3F1DB
:100C0000004F40EBC25008BF20F00100704790F049
:100C1000000F0CF0004C08BF49024CEA502040EA9B
:100C200051207F3AC2BFD2F1FF0340EAC250704761
:100C300040F400004FF00003013A5DDC12F1190F9F
:100C4000DCBF00F000407047C2F10002410021FA11
:100C500002F1C2F1200200FA02FC5FEA310040F129
:100C6000000053EA4C0308BF20EADC70704792F0A2
:100C7000000F00F0004C02BF400010F4000F013ADA
:100C8000F9D040EA0C0093F0000F01F0004C02BFD5
:100C9000490011F4000F013BF9D041EA0C018FE744
:100CA0000CEAD15392EA0C0F18BF93EA0C0F0AD04A
:100CB00030F0004C18BF31F0004CD8D180EA010070
:100CC00000F00040704790F0000F17BF90F0004F09
:100CD000084691F0000F91F0004F14D092EA0C0FEB
:100CE00001D142020FD193EA0C0F03D14B0218BF7E
:100CF000084608D180EA010000F0004040F0FE40C4
:100D000040F40000704740F0FE4040F4400070475F
:100D10004FF0FF0C1CEAD0521EBF1CEAD15392EADE
:100D20000C0F93EA0C0F69D0A2EB030280EA010CCE
:100D300049024FEA402037D04FF0805343EA111167
:100D400043EA10130CF000408B4238BF5B0042F1C5
:100D50007D024FF4000C8B4224BF5B1A40EA0C006A
:100D6000B3EB510F24BFA3EB510340EA5C00B3EB9C
:100D7000910F24BFA3EB910340EA9C00B3EBD10F8A
:100D800024BFA3EBD10340EADC001B0118BF5FEADC
:100D90001C1CE0D1FD2A3FF650AF8B4240EBC25005
:100DA00008BF20F0010070470CF0004C4CEA5020C6
:100DB0007F32C2BFD2F1FF0340EAC250704740F415
:100DC00000004FF00003013A37E792F0000F00F007
:100DD000004C02BF400010F4000F013AF9D040EA85
:100DE0000C0093F0000F01F0004C02BF490011F419
:100DF000000F013BF9D041EA0C0195E70CEAD15311
:100E000092EA0C0F08D142027FF47DAF93EA0C0FF7
:100E10007FF470AF084676E793EA0C0F04D14B02DB
:100E20003FF44CAF08466EE730F0004C18BF31F08D
:100E3000004CCAD130F000427FF45CAF31F0004387
:100E40007FF43CAF5FE700BF53B94AB9002908BF40
:100E500000281CBF4FF0FF314FF0FF3000F074B995
:100E6000ADF1080C6DE904CE00F006F8DDF804E001
:100E7000DDE9022304B070472DE9F0478C460446B3
:100E8000089E002B4BD18A42154667D9B2FA82F2EE
:100E90004AB1C2F1200701FA02F320FA07F79540A0
:100EA00047EA030C94404FEA154EBCFBFEF71FFACD
:100EB00085F80EFB17C307FB08F9210C41EA034331
:100EC000994509D9EB1807F1FF3180F01C8199454C
:100ED00040F21981023F2B44A3EB0903B3FBFEF060
:100EE0000EFB103300FB08F1A4B244EA0344A14214
:100EF00009D92C1900F1FF3380F00781A14240F29B
:100F0000048102382C4440EA07400027641A1EB1CD
:100F10000023D440C6E900433946BDE8F0878B4240
:100F200009D9002E00F0EC800027C6E90001384600
:100F30003946BDE8F087B3FA83F7002F48D18B42DA
:100F400002D3824200F2FB80841A61EB030301208A
:100F50009C46002EE0D0C6E9004CDDE702B9FFDE7A
:100F6000B2FA82F2002A40F08F800127491B4FEA33
:100F700015481FFA85F9B1FBF8FE08FB1E1109FBA5
:100F80000EF04FEA144C4CEA0143984207D9EB1893
:100F90000EF1FF3102D2984200F2CD808E461B1A2C
:100FA000B3FBF8F008FB103309FB00F9A4B244EAE4
:100FB0000344A14507D92C1900F1FF3302D2A14502
:100FC00000F2B6801846A4EB090440EA0E409EE702
:100FD000C7F12005BB4022FA05FC4CEA030C21FABC
:100FE00005F44FEA1C4EB4FBFEF91FFA8CF80EFB19
:100FF000194420FA05F3B94009FB08FA19430B0C10
:1010000043EA0444A24502FA07F200FA07F30BD9B7
:101010001CEB040409F1FF3080F08880A24540F207
:101020008580A9F102096444A4EB0A04B4FBFEF034
:101030000EFB104400FB08FA89B241EA0444A245C1
:1010400008D91CEB040400F1FF316BD2A24569D929
:101050000238644440EA0940A0FB0289A4EB0A0478
:101060004C454146CE4654D351D0002E69D05A1A31
:1010700064EB0E0404FA05F522FA07F3FC401D4365
:10108000C6E90054002747E79540C2F1200321FA42
:1010900003F04FEA1548B0FBF8F71FFA85F908FB93
:1010A000170024FA03F3914007FB09FC0B43190CCA
:1010B00041EA00418C4504FA02F407D9691807F1A6
:1010C000FF3031D28C452FD9023F2944A1EB0C01CE
:1010D000B1FBF8F008FB101C00FB09FE99B241EAD5
:1010E0000C418E4507D9691800F1FF3318D28E459F
:1010F00016D902382944A1EB0E0140EA07473AE726
:101100003746304608E70F46E6E61846FBE6434515
:10111000ABD2B8EB020169EB0C0201389646A4E7AA
:101120001846E8E7084695E70746CFE781467BE79C
:1011300002382C4447E7AEF1020E2B442FE7384625
:1011400007E73746E8E600BF704700BF0000000031
:101150002DE9F04F0124D7B001F0EAF800F0DAFEF3
:1011600000F026F9012002F015FC4D4B4D494E4888
:101170001C7001F0FFF84D4A09ABCDE90B420E920D
:101180000A92022209924A4A4FF48051CDE90F2374
:1011900000230A220393CDE904320723454FCDE90A
:1011A00001433DA3D3E90023009410A80D9101F061
:1011B0001FFD3B784FF4FA62A3424FF0100110A8D4
:1011C0003D4C3DD101F0A8FC3C4DDFF80C812B6873
:1011D0003B4EDFF8089120702B683B78012B32D111
:1011E000384801F0C7F84FF47A7002F0D3FB364864
:1011F00001F0C0F83549304601F0CDFE0721DFF897
:10120000E0A04FF4FA6210A8CAF8001001F084FCC4
:10121000314620702E4801F0ADF84FF4FA639AF889
:101220000020314610A801F0B7FC2A4A207013684C
:101230000133136041F2883002F0ACFB2B68CBE73E
:1012400001F0F0FBC0E74FF4487002F0A3FB40460A
:1012500001F090F810A801F031FC0246207000283F
:10126000E8D0314610A801F0E9FC10A894F800A0DD
:1012700001F0FCFC834610A801F0FBFC079010A8CD
:1012800001F0EDFC079B0190009332465B4651460E
:10129000484601F06FF8CDE7C0CA8936000000006B
:1012A0008D070020486300084F630008000C0140D0
:1012B000980D0020100200208C070020BC10002098
:1012C0008C0500205C630008696300087E630008E9
:1012D000866300088805002093630008AA6300085D
:1012E0008405002010B5064C6369DB0606D54FF473
:1012F0000051044802F01FFE1023636110BD00BFBF
:101300000004014000100140014802F095BC00BFFC
:10131000340E00200368134A13B5934204460BD1E0
:101320001A68D10608D5002200921A6800925B68FC
:101330000093009B00F0C0FD23680B4A93420FD13D
:101340001A68D2060CD50022204601921A68019232
:101350005B680193019B02B0BDE8104001F0E8B961
:1013600002B010BD004400400048004010B5044CDD
:10137000204603F0CBFC2046BDE81040FFF7CABF73
:10138000100F002010B5044C204603F0BFFC20468F
:10139000BDE81040FFF7BEBFF00D002002F0E8BA34
:1013A0007047FEE7FEE7FEE7FEE7704770477047CD
:1013B00008B50349034800F02DF8034B187008BD29
:1013C00090070020000000209407002000207047B4
:1013D00030B50F4B5C7A012C18D800245D7AEDB241
:1013E0005C555D7A03EB85056860587A1844027293
:1013F0005A7AD2B2501CC0B258723A234B702F2383
:10140000204630320A708B70CC7030BD0120FCE772
:10141000140200200022FFF7DBBF00F0F9B800F053
:1014200095B900F09DB900F0DBB900F03DBA0000BD
:101430007FB532238DF80F0000930DF117020123C1
:101440000DF10F01034803F07BF99DF8170007B079
:101450005DF804FB980D002070B5054602F094FA83
:101460000646FF20FFF7E4FFFF28044604D002F001
:101470008BFA801BA842F4D3A4F1FF0358425841D1
:1014800070BD000008B5054801224FF4805102F0FC
:101490004DFDBDE80840FF20FFF7CABF000C01402A
:1014A00010B500224FF48051084802F03FFDFF20A4
:1014B000FFF7BEFF4FF4FA70FFF7CEFF044618B9EE
:1014C000FFF7E0FF204610BD0124FBE7000C0140C0
:1014D000020638B504460D4607D500213720FFF730
:1014E000F7FF01282BD804F07F040C2C28D144F0FE
:1014F0004000FFF79DFF280EFFF79AFFC5F3074056
:10150000FFF796FFC5F30720FFF792FFE8B2FFF75A
:101510008FFFECB1082C14BF01208720FFF788FF54
:101520000C2C02D1FF20FFF783FF0A24FF20FFF7D6
:101530007FFF030603D5013C14F0FF04F6D138BD4C
:10154000FFF7A0FFFFF7ACFF0028D0D1FF20F6E7A0
:101550009520E3E738B5451E00F2FF1415F8010F9A
:10156000FFF766FFA542F9D1FF20FFF761FFFF20DB
:10157000FFF75EFFFF20FFF75BFF00F01F00431F38
:101580005842584138BD000010B5044602F0FCF93D
:10159000024B1860024B1C6010BD00BFF40B002012
:1015A000F80B002008B502F0EFF9054B1B68C01AD4
:1015B000044B1B6898422CBF0020012008BD00BFCF
:1015C000F40B0020F80B002038B50446C8200D4667
:1015D000FFF7DAFFFF20FFF72BFFFF2805D1FFF70A
:1015E000E1FF0028F6D1002038BDFE28FBD12544BC
:1015F000FF20FFF71DFF04F8010BA542F8D1FF20E3
:10160000FFF716FFFF20FFF713FF0120ECE70000B4
:10161000F7B5002840F09180494B1A781D4612F02A
:10162000020F03D01878C0B203B0F0BD0A24454EB3
:101630003268136823F0380343F030031360FF204F
:10164000013CFFF7F5FE14F0FF04F8D121462046D7
:10165000FFF73EFF012807466BD14FF47A70FFF782
:1016600093FF4FF4D5710820FFF732FF012844D1D2
:1016700001AFFF20FFF7DCFE38550134042CF8D110
:101680009DF80630012B54D19DF80730AA2B50D17C
:10169000FFF788FF30B14FF08041A920FFF718FF16
:1016A0000028F5D1FFF77EFF002842D000213A2024
:1016B000FFF70EFF00283CD10446FF20FFF7B8FEDD
:1016C00038550134042CF8D19DF8043013F0400F44
:1016D00014BF0C2404241C4B1C70FFF7D3FE54B31E
:1016E0003268136823F0380343F0100313602B783B
:1016F00003F0FE032B70287895E72146A920FFF719
:10170000E7FE022836BF02240124A927FFF74AFF7B
:1017100028B100213846FFF7DBFE0028F6D1FFF79D
:1017200041FF30B14FF400711020FFF7D1FE0028C7
:10173000D1D00024CFE70123DCE7012074E700BF0C
:1017400014000020980D00202002002018B9034B3F
:101750001878C0B270470120704700BF1400002005
:1017600038B50D461C46114688BB83B31A4B1B780F
:10177000DA072ED4194B1B781B0758BF4902012CDE
:1017800011D11120FFF7A4FE38B94FF4007128469B
:10179000FFF71AFFB0FA80F46409FFF773FE201C0C
:1017A00018BF012038BD1220FFF792FE0028F4D1A7
:1017B0004FF400712846FFF707FF18B1013C05F50B
:1017C0000075F5D100210C20FFF782FEE5E704202B
:1017D000E8E70320E6E700BF140000202002002015
:1017E00070B50D4616461C46002852D1002B50D02D
:1017F0002B4B1A78D0074ED41B7859074DD4294B60
:101800001B781A0758BF7602012C1BD131461820CD
:10181000FFF75EFE30B10124FFF734FE201C18BF35
:10182000012070BD4FF4FA70FFF716FE0028F2D0C9
:10183000FE20FFF7FDFD2846FFF78CFEB0FA80F48E
:101840006409E9E713F0060F03D021469720FFF75C
:101850003FFE31461920FFF73BFE0028DCD14FF454
:10186000FA70FFF7F9FD50B1FC20FFF7E1FD2846C3
:10187000FFF770FE18B1013C05F50075EFD14FF48C
:10188000FA70FFF7E9FD0028C5D0FD20FFF7D0FD75
:10189000C2E70420C5E70320C3E70220C1E700BF79
:1018A00014000020200200207FB51546002840F0DB
:1018B000DB806F4B1B78D80700F1D880042900F239
:1018C000D180DFE801F00309CF4A9800FFF7E8FD77
:1018D000B0FA80F4640906E000210920FFF7F8FD62
:1018E000044628B10124FFF7CDFD204604B070BDA9
:1018F00010216846FFF768FE0028F3D09DF80030FD
:101900009DF808109B09012B9DF809009DF80730F0
:1019100009D11A0402F47C1200EB012101320A44BD
:1019200092022A60DFE79DF806209B00920203EBFB
:10193000911302F4406213449DF805209DF80A10AB
:1019400002F00F0202EBD112410001F006010A443D
:101950000133073A93402B60C5E7464C217811F0DC
:1019600004011BD000218D20FFF7B2FD0028B9D162
:10197000FF20FFF75DFD10216846FFF725FE0028D8
:10198000B0D03024FF20013CFFF752FD14F0FF04DB
:10199000F8D19DF80A301A091023DBE70920FFF778
:1019A00097FD064600289DD110216846FFF70CFEE2
:1019B000002897D020789DF80A3010F002049DF896
:1019C0000B100DD05B009DF80D2003F07E0303EBA0
:1019D000D11392090133013A93402B60344682E7D8
:1019E000CA0002F01802C3F3840302EB5112013360
:1019F00002FB0333AFE71F4C227812F0060F3FF4CF
:101A000071AF6A460B210020FFF74EFF00287FF4DC
:101A100069AF9DF800309B0904D19DF80A305A0641
:101A20007FF560AFD5E90015237820201B075CBF48
:101A300049026D02FFF74CFD00287FF453AF2946A1
:101A40002120FFF745FD014600287FF44BAF2620FB
:101A5000FFF73EFD00287FF445AF47F23050FFF717
:101A6000FBFC35E704243EE704243EE703243CE77F
:101A7000140000202002002070B5054608461146DB
:101A800001F0A3FA2A21064601F078FA801B10F033
:101A9000FF0409D022463146284601F085F900238B
:101AA0002B55024BA3F8004170BD00BF000C002075
:101AB0002C232DE9F0419B4CC6B04FF480720021DD
:101AC00006A8ADF8003001F07AF9974A214606A839
:101AD000FFF7D2FFB4F800316BB30622924906A893
:101AE00001F061FA0646002840F0E880694606A841
:101AF00001F086FAB046054605BBA4F800514FF444
:101B00008072002106A801F05AF9884A854906A882
:101B1000FFF7B2FF0622854906A801F044FA0746FE
:101B200048B9694606A801F06BFA0546002D40F059
:101B3000C780A4F8005146B0BDE8F0816946002096
:101B400001F05EFA0136F6B2731E05460D2BD3D8AE
:101B5000DFE803F0072F3E415053585D6C7B7E8DCC
:101B6000909F03788DF80430437801A88DF80530F4
:101B70008DF8068001F0E8F884F80801AB7801A838
:101B80008DF80430EB788DF806808DF8053001F083
:101B9000DBF884F809012B7901A88DF804306B7902
:101BA0008DF806808DF8053001F0CEF884F80A0132
:101BB000A2E72E2101F0E2F9471C284601F0C4F803
:101BC000A4F80E01384601F0BFF8C4F8100193E7FD
:101BD00084F81C0190E72E2101F0D0F9471C28461B
:101BE00001F0B2F8A4F81E01384601F0ADF8C4F8CF
:101BF000200181E784F82C017EE701F0A5F884F844
:101C00002D0179E701F0A0F884F82E0174E72E2168
:101C100001F0B4F9471C284601F096F8C4F83001E9
:101C2000384601F091F8C4F8340165E72E2101F03F
:101C3000A5F9471C284601F087F8C4F83801384652
:101C400001F082F8C4F83C0156E784F8400153E7FC
:101C50002E2101F093F9471C284601F075F8C4F8CD
:101C60004401384601F070F8C4F8480144E784F8AC
:101C70004C0141E72E2101F081F9471C284601F073
:101C800063F8A4F84E01384601F05EF8A4F850015C
:101C900032E72A2101F072F907462846FEF758FA82
:101CA0007F1BC71BFAB20132294601A801F07CF85C
:101CB00001A801F049F884F852011DE700261EE74B
:101CC0006946002001F09CF90136F6B2082E05465F
:101CD0007FF42CAF03788DF80430437801A88DF899
:101CE00005308DF8067001F02FF884F80B01AB7801
:101CF00001A88DF80430EB788DF806708DF805306A
:101D000001F022F884F80C012B7901A88DF8043039
:101D10006B798DF806708DF8053001F015F884F8B0
:101D20000D0103E7000C0020076400080E640008A2
:101D30002DE9F84F64255A4C4FF0000AB4F80E8193
:101D4000B8FBF5FB5846FEF75DFB064640460F46DE
:101D5000FEF7D2FE5349FEF7DBFF80465846FEF7FA
:101D6000CFFE01464046FEF715FE4E49FEF71CFF2A
:101D7000FEF75AFB8046D4F810018946FEF732FB85
:101D800045A3D3E90023FEF7D1FC02460B464046AB
:101D90004946FEF7EBF90022434BFEF7C7FC3246FB
:101DA0003B46FEF7E3F981468846484608F1004184
:101DB000FEF7A4FD3246A4F814013B4648464146CE
:101DC000FEF7D2F934A3D3E90023FEF785FBFEF733
:101DD000BDFD80B25246C4F818015946334800F0A0
:101DE000C9FAB4F81E81B8FBF5F52846FEF70AFBE0
:101DF000064640460F46FEF77FFE2A49FEF788FF5B
:101E000080462846FEF77CFE01464046FEF7C2FDAE
:101E10002449FEF7C9FEFEF707FB8046D4F82001EF
:101E20008946FEF7DFFA1CA3D3E90023FEF77EFC08
:101E300002460B4640464946FEF798F900221A4BE7
:101E4000FEF774FC32463B46FEF790F98146884621
:101E5000484608F10041FEF751FD3246A4F824013E
:101E60003B4648464146FEF77FF90BA3D3E90023E2
:101E7000FEF732FBFEF76AFD80B2C4F8280129465E
:101E800052460B4800F076FA94F82E110948BDE846
:101E9000F84F00F06FBA00BF00000000006AF84081
:101EA000000C00200000C84200004E40DB63000828
:101EB000F1630008FE63000870B5064602F070FE8C
:101EC000104B114C1B68114D5B685B42DBB22370F9
:101ED000FFF7EEFDFFF72CFF95F82E21032A04D91A
:101EE0004FF400510A4802F026F823783046A5F84E
:101EF000003100234FF4807223700449BDE8704024
:101F000002F006BE340E0020FC0B0020000C002066
:101F1000000C01402DE9F04FB74C93B001F016FDD5
:101F2000A369012543F00403A361A369032603F019
:101F300004030293029BA3690EA943F00803A36163
:101F4000A369AE4803F008030393039BA36910271A
:101F500043F01003A361A369109503F010030493E9
:101F6000049B4FF400531196CDE90E3501F0F8FEB5
:101F70004FF440530EA9A248CDE90E35CDE91056D5
:101F800001F0EEFECDE910564FF400460EA99D4833
:101F9000CDE90E5501F0E4FE0EA998480E9601F029
:101FA000DFFE29460022974801F0C0FF3146002697
:101FB0000022924801F0BAFF934B0EA99148CDE957
:101FC0000E73109601F0CCFE39468E4801F0A8FF42
:101FD000B04218BF35468D4B0EA91D70A36902256E
:101FE00043F00403A361A369864803F00403059347
:101FF000059BA36943F48043A361A369CDE9106500
:1020000003F480430693069B4FF40073CDE90E352D
:1020100001F0A6FE4FF480637A480EA9CDE90E3692
:10202000119501F09DFE4FF416537948794D866065
:10203000C0E900530C23C0E9036686614361C661B1
:1020400002F0E1FC00B1FFBEA369002543F00403E8
:10205000A361A369022603F004030793079BE369C6
:102060000EA943F40033E361E369664803F40033E7
:102070000893089B0423CDE91056CDE90E3601F0F4
:102080006FFE08230EA95F48CDE90E35119601F0C9
:1020900067FE4FF41653604860498560C0E900133D
:1020A0000C23C0E9035585614361C56102F0ABFCB7
:1020B00000B1FFBE00222620114601F08FFC262031
:1020C00001F0C0FCA369002543F00803A361A369E4
:1020D000022603F008030993099BE3690EA943F460
:1020E0008023E361E369464803F480230A930A9B53
:1020F0004FF48063CDE91056CDE90E3601F030FE85
:102100004FF400633E480EA9CDE90E35119601F05B
:1021100027FE4FF416534248424A8560C0E9002327
:102120000C23C0E9035585614361C56102F06BFC76
:1021300000B1FFBE002200254FF0800A4FF4005985
:102140001146272001F04AFC272001F07BFC63693F
:10215000354E43F0010363616369304603F00103C8
:102160000B930B9B314BC6E903A5C6E90035B5605F
:10217000C6E90555C6F81C9001F088FC264B0127DE
:102180005E6373622A4E2B4B3046C6E90035C6E9C2
:10219000025AC6E90455C6E9065901F077FC204BFE
:1021A0000EA95E637362A369032643F48053A3619F
:1021B000A369144803F480530C930C9B10234FF035
:1021C00002080E930193CDE90F75119601F0C8FD39
:1021D00020220EA90B48CDE90E28CDE9105601F0BA
:1021E000BFFD40220EA90748CDE90E25CDE91056C6
:1021F00001F0B6FD20E000BF0010024000100140D9
:10220000000C01400008014000003110300E002099
:10221000780E002000380140100F002000440040DC
:10222000F00D002000480040340E00206C000240F9
:10223000540D0020300002400EA93748CDE90EA809
:102240004FF4827B4FF4007ACDE9105601F088FDFF
:1022500007233248324AC56102604561C0F804B0C4
:10226000C0E903558560C0F818A0C0E9085585622B
:10227000C36202F062F9019B3A461946264801F012
:1022800055FEE3690EA943F48043E361E3694FF42B
:10229000805403F480430D9322480D9BCDE90E47F3
:1022A000CDE9105601F05CFD0EA91E48CDE90E984F
:1022B000CDE9105601F054FD4FF480430EA91948A2
:1022C000CDE90E35CDE9105601F04AFD4FF400433B
:1022D0000EA91448CDE90E38CDE9105601F040FDA5
:1022E0001148124BC561036007234561C362C0F802
:1022F00004B0C0E903558560C0F818A0C0E90855CE
:10230000856202F01AF93A462146064801F00EFEAF
:1023100013B0BDE8F08F00BF00080140B80E0020E8
:1023200000300140000C0140980D002000380040B2
:1023300000B591B02422002107A800F040FD14222E
:10234000002101A800F03BFD022301210693102388
:1023500006A8CDE90A1301F0F7FD00210F2301A81B
:10236000CDE90131CDE90311059101F0C5FF11B0AF
:102370005DF804FB0FB413B50C4C04AB53F8042BFD
:102380004FF480712046019300F04CFF2046FDF78A
:10239000DFFE4FF0FF3382B22146054802F061FBB9
:1023A00002B0BDE8104004B0704700BF2102002019
:1023B000780E00202DE9F04F0025052142F201475B
:1023C000AC46864E864C737896F802B096F8038039
:1023D00096F800A096F8049063801FFA8BF21FFA1B
:1023E00088F3ADF5497DA4F800A0A280E38084F8CD
:1023F0000B90705C0D2804D827FA00FE1EF0010F28
:1024000006D10DF1280E8E4401350EF8050CEDB203
:10241000F92901F1010108BF8DF821C1FA29E8D19C
:102420000D200A270AA94855481947700027033587
:10243000877049AFEDB23846CDE9042300F0ABFD1B
:10244000DDE90423E91E785C0D281CBF20207854A8
:10245000B9F1010F3FD1022B3DD0A38000238DF8AD
:102460001C300F2362808DF81E3052465B465D495A
:10247000CDE90189CDF8008088A88DF81D808DF800
:1024800020A08DF821B08DF822808DF823808DF862
:10249000249000F053FD4FF40063032207A9524833
:1024A00002F0DFFA4FF40063052208A94E4802F05B
:1024B000D8FA4FF400632A4639464B4802F0D1FA65
:1024C0004A4B88A94A4883F80090FFF753FF3946E2
:1024D0004748FFF74FFFE388022B3FD17278B3786C
:1024E00091B230792180A180317800268DF81C606E
:1024F0000F26CDE90110E180E0728DF823108DF8F0
:10250000240000923B4988A863808DF81D208DF837
:1025100020208DF821308DF822208DF81E6000F0EB
:102520000DFD4FF40063032207A92F4802F099FA2A
:102530004FF40063052208A92B4802F092FA4FF4E9
:1025400000632A463946284802F08BFA88A92848B1
:10255000FFF710FF39462648FFF70CFFE67A022EF8
:1025600037D140F60D2306A907A8ADF8183000F0C2
:1025700012FD00238DF820300F23E188228801917D
:10258000A1888DF82230009163881B49029688A8A3
:102590008DF8212000F0D2FC4FF40063032208A93B
:1025A000114802F05EFA4FF40063072288A90E4832
:1025B00002F057FA4FF400632A4639460A4802F0FF
:1025C00050FA88A90A48FFF7D5FE39460848FFF7B0
:1025D000D1FE0DF5497DBDE8F08F00BF7A0F0020D8
:1025E0007C10002027640008F00D0020210300204B
:1025F0004264000845640008326400081448154B22
:10260000028800211A8042885A8082889A808279C2
:10261000DA72C2799A72027A5A72427A9A71827A1C
:10262000DA71C27A1A7282899A81D0F80E201A6100
:10263000428A9A8242699A6182691A62C2695A62BE
:1026400090F820201A774FF4807200F0B8BB00BFDA
:102650007A0F00209010002070B52E4CD8B0227850
:102660002D4910A800F06AFC64202C490B785A1CF4
:1026700092FBF0F300FB13230B7013B923780133A3
:102680002370274C18AD217F638822880D91616AE1
:1026900028460C91216A0B91A1690A91B4F9141092
:1026A000099121690891B4F90C100791217A0691DA
:1026B000E1790591A1790491617A0391A17A02915E
:1026C000E17A0191A1880091164900F037FC284673
:1026D000FDF73EFD00232B54134B06461B78BBB180
:1026E000237FABB172B6114C122210A9204603F021
:1026F0004FFAD4F80C12204603F083FC0FAB32469D
:102700002946204603F01CFB204603F069FC62B614
:1027100058B070BD500500205E64000823030020FF
:10272000901000206A6400088D0700202403002018
:1027300070B5064602F034FA1C4B1D4D1B681D4C4B
:102740005B682A785B42DBB223704AB921781A4B66
:102750000B445A70FFF72EFEFFF750FFFFF77CFF88
:102760002B78032B12D1144B14485A78997801EB2B
:102770000221DA7889B282701A795B79018003715B
:10278000C2700F48FFF7F6FD00232B704FF4805105
:102790000C4801F0D0FB0023304623704FF48072C8
:1027A000BDE87040044902F0B3B900BF540D0020E9
:1027B00022030020FC0B00207A0F0020740F002061
:1027C00015640008000C0140F8B50D4606461F468A
:1027D00000210068144600F04FFA45F0800130688F
:1027E00000F05DFA013F651E3C44A542306804D10B
:1027F000BDE8F840012100F03FBA15F8011F00F0D4
:102800004EFAF2E738B50446006800F048FA20684E
:1028100000F05BFA05460121206800F02DFA2846F9
:1028200038BD70B504460E4615460021006800F01C
:1028300023FA46F08001206800F031FA294620682A
:1028400000F02DFA20680121BDE8704000F014BAB4
:10285000012BF8B505460F4616461C4618D900212F
:10286000006800F009FA3946286800F018FA013CBF
:10287000E4B2771E3444286800F027FA07F8010F05
:10288000A742F8D128680121BDE8F84000F0F4B96A
:10289000F8BD012B01D9FFF797BF704710B509228A
:1028A00001210446FFF7BDFF0123A37510BD10B53C
:1028B000082201210446FFF7B4FF0023A37510BDD1
:1028C00088220121FFF7ADBF73B50446FFF7EFFF84
:1028D0000F2000F018FA2046FFF7F2FFD4E9025368
:1028E000D904484A0023E80441EA5531FEF7ACFA1E
:1028F000030C8DF80430030A8DF805308DF80600BE
:10290000032301AA06212046FFF75EFF3422392166
:102910002046FFF786FF237C3B4A0921D25C2046F4
:10292000FFF77FFF0B2220461146FFF77AFF232295
:102930000C212046FFF775FF344E637CA27CF35CCC
:102940003348062B3349E37C805CCA5C324D4FEA46
:10295000420202EB001244D10132D2B21D212046C4
:10296000FFF75FFF227D637CAA5CF35C920002EBC1
:1029700003120332D2B21E212046FFF752FF31214B
:102980002046FFF73FFF00F0F80242F00502312138
:102990002046FFF746FF0C2237212046FFF741FF74
:1029A000204604222621FFF73CFF204608221F2153
:1029B000FFF737FF204600222021FFF732FF204695
:1029C00008222121FFF72DFF012241212046FFF798
:1029D00028FF0023204684F81731FFF75FFF02B07D
:1029E00070BD02F0FE021D212046FFF71AFF227D76
:1029F000637CAA5CF35C920002EB031202F0FC021F
:102A00001E21CAE70048E801AD640008B16400086F
:102A1000A36400089F6400089D640008FF2212213F
:102A2000FFF7FFBE70B504460E4661751546FFF709
:102A30004BFF84224D212046FFF7F3FEFF22242185
:102A40002046FFF7EEFE012240212046FFF7E9FE77
:102A50003F2211212046FFF7E4FE2046FFF7DEFF6C
:102A6000324622212046FFF7DCFE0F212046FFF7E9
:102A7000C9FE0D2102462046FFF7D3FE8D2201211B
:102A80002046FFF7CEFE002384F817311821204698
:102A9000FFF7B8FE430703D503230120A37570BDDC
:102AA000013D07D1206800F030F92046FFF70CFF08
:102AB0002846F4E7012000F026F9E7E770B5044660
:102AC000006800F038F9F0B104F117064FF4807295
:102AD0000021304600F073F910212046FFF792FEE6
:102AE0000D2102462046FFF79CFE637C73B9657D8D
:102AF00020462B4632460021FFF7AAFE84F81751E4
:102B00002046FFF78BFF94F8170170BD1321204674
:102B1000FFF778FE0546EBE770B504460E46617593
:102B20001546FFF7D1FE87224D212046FFF779FE9B
:102B3000002224212046FFF774FE41224021204636
:102B4000FFF76FFE2046FFF769FFF72211212046AD
:102B5000FFF767FE324622212046FFF762FE0E2174
:102B60002046FFF74FFE0D2102462046FFF759FE93
:102B700022212046FFF746FE864203D10223012090
:102B8000A37570BD013DF3D1206800F0BEF820466A
:102B9000FFF79AFE2846F4E770B504461E46134632
:102BA0000A460021FFF775FE8B2201212046FFF720
:102BB00038FE206800F0BFF8054660B112212046BB
:102BC000FFF720FE2046FFF729FF2046FFF766FEAD
:102BD0000125284670BD013E06D1206800F095F819
:102BE0002046FFF771FEF4E7012000F08CF8E0E7E3
:102BF0002DE9F74F044699469DF83030006890461D
:102C000001939DF834B09DF838A09DF83C709DF874
:102C100040609DF8445000F036F82046019BC4E91E
:102C20000289237484F811B084F812A0E774267521
:102C3000657503B0BDE8F04FFFF746BE70B50E46B0
:102C400090F81741054600F117012246304600F082
:102C5000ABF800232046335585F8173170BD08B511
:102C60001B21FFF7CFFD0A38C0B208BD1921FFF7BD
:102C7000C9BD1A21FFF7C6BD4B1E5A42018A5A41EF
:102C8000406901F053B910B504460121FFF7F4FF84
:102C9000218860680122BDE8104001F047B937B5CE
:102CA000054602AC04F8011D0021FFF7E5FF4FF4D3
:102CB0007A7301222146A86901F097FCA86901F006
:102CC0002FFE0128FAD103B030BD002130B585B008
:102CD00004AC04F8011D05468DF80E10FFF7CCFF7B
:102CE0004FF47A73224600930DF10E010123A86977
:102CF00001F026FDA86901F013FE0128FAD19DF824
:102D00000F0005B030BD00F045BE10B504460121EE
:102D1000FFF7B2FF21880022606801F007F9012067
:102D2000FFF7F1FF60680122218801F0FFF86420BD
:102D3000FFF7E9FF10BD08B50189C06801F0F0F8A0
:102D4000431E5842584108BD0A22002100F028BA0B
:102D500070B500250C4E0D4CA41BA410A54209D142
:102D600003F0DEFA00250A4E0A4CA41BA410A5426B
:102D700005D170BD56F8253098470135EEE756F875
:102D8000253098470135F2E7A4660008A4660008DC
:102D9000A4660008A8660008024B0146186800F007
:102DA00063B800BF1800002010B5431E0A449142CA
:102DB00000D110BD11F8014B03F8014FF7E70346AE
:102DC0000244934200D1704703F8011BF9E7000069
:102DD00038B50546002943D051F8043C0C1F002BA0
:102DE000B8BFE41800F041FA1E4A1368104633B920
:102DF000636014602846BDE8384000F037BAA3424B
:102E00000BD921686218934201BF1A685B68521897
:102E1000226063600460EDE713465A680AB1A2427B
:102E2000FAD919685818A0420BD1206801445818E3
:102E300082421960DED110685268014419605A60FC
:102E4000D8E702D90C232B60D4E7206821188A42E6
:102E500001BF116852680918216062605C60C9E7AF
:102E600038BD00BF5405002070B5CD1C25F003050A
:102E700008350C2D38BF0C25002D064601DBA94274
:102E800003D90C233360002070BD00F0EEF9214A15
:102E90001468214691B9204C23681BB9304600F0D4
:102EA0003DF820602946304600F038F8431C24D114
:102EB0000C233046336000F0D9F9E4E70B685B1B64
:102EC00018D40B2B0FD90B60CC18CD50304600F026
:102ED000CDF904F10B00231D20F00700C31AD3D055
:102EE0005A42E250D0E74B688C4216BF63601360D1
:102EF0000C46EBE70C464968CCE7C41C24F00304FD
:102F0000A04205D0211A304600F008F80130CFD099
:102F10002560DBE7540500205805002038B5002364
:102F2000054C05460846236000F0DCFC431C02D13A
:102F3000236803B12B6038BDB81000200EB46FF0C9
:102F4000004100B59CB01DAB029006900791049122
:102F50000848094953F8042B0591006802A9019318
:102F600000F0E0F90022029B1A701CB05DF804EB3F
:102F700003B07047180000200802FFFFC9B20346E3
:102F800010F8012B1AB18A42F9D11846704700296E
:102F900018BF0023F9E7034611F8012B03F8012BB2
:102FA000002AF9D1704710B56AB10139841810F8B8
:102FB000013B11F8012F934203D1A04201D0002B15
:102FC000F5D1981A10BD1046FCE7F0B503787BB137
:102FD000044623782046661C7BB14A1E631E12F805
:102FE000015F4DB113F8017F3446AF42F7D0F0E7EF
:102FF0000B78002B18BF0020F0BD1846FCE700003E
:10300000134B2DE9F0411D680646AC6D0F46B4B96F
:103010005020FFF7C1FEA865C0E90044C0E90244A2
:10302000C0E90444C0E90A44C0E90C44C0E90E44C4
:10303000C0E91044C0E91244846104774462AA6D77
:1030400039463046BDE8F041012300F003B800BF27
:1030500018000020F0B518B9106808B9F0BD204676
:1030600004460F4614F8015B17F8016B1EB96DB9E1
:1030700015602846F2E7B542F6D1002BEFD1146077
:103080000370EBE72B460DE026B91C4623460F469E
:1030900013F8015B17F8016BB542F5D1002DF1D0A3
:1030A000002121701360D9E72DE9F0478046894659
:1030B00092461E460F463D46089815F8014B00F013
:1030C000BFF82044437813F0080332D12D2C32D1BD
:1030D00001227C78BD1C002E5DD0102E09D1302C31
:1030E00007D12B7803F0DF03582B4FD110266C78D3
:1030F0000235002A14BF4FF000416FF00041002755
:10310000B1FBF6FC384606FB1C1EA4F13003092B6C
:1031100017D81C46A64223DD7B1C07D084451CD350
:1031200001D1A64519DB012700FB064015F8014B2C
:10313000EBE72F46BFE72B2C04BFBD1C7C781A465B
:10314000C9E7A4F14103192B01D8373CE2E7A4F108
:103150006103192B04D8573CDCE74FF0FF37E5E754
:103160007B1C08D122230846C8F80030BAF1000FB2
:1031700007D1BDE8F08702B14042BAF1000FF8D0A4
:103180000FB105F1FF39CAF80090F2E73024002EA4
:10319000AFD10826ADE7302CA3D00A26A9E700005E
:1031A000084B37B51C68084D236A002B08BF2B4617
:1031B000009313460A4601462046FFF775FF03B009
:1031C00030BD00BF180000207C00002030B5141E68
:1031D00005469BB0184605DA8B234FF0FF302B6075
:1031E0001BB030BD4FF40273ADF80C300CBF23465A
:1031F00004F1FF33029305934FF6FF73009104919E
:10320000ADF80E3002461E9B6946284600F08AF84B
:10321000431CBCBF8B232B60002CE1D00022009B01
:103220001A70DDE707B5009313460A4601460348C6
:103230000068FFF7CBFF03B05DF804FB1800002027
:10324000D0F8EC00704782B001B901A942B14BB18E
:1032500013780B601278101C18BF012002B0704761
:103260001046FBE76FF00100F8E7704770472DE963
:10327000F0478E6882469E420C469046994637D863
:103280008A8912F4906F31D00223256809696F1A78
:10329000656905EB450595FBF3F509F101033B4431
:1032A0009D4238BF1D46530530D52946FFF7DCFD4A
:1032B000064650B90C234FF0FF30CAF80030A389FE
:1032C00043F04003A381BDE8F0873A462169FFF748
:1032D0006BFDA38923F4906343F08003A3812661EF
:1032E0003E4426604E466561ED1BA5604E4500D903
:1032F0004E4632464146206800F0ADFAA3680020F1
:103300009B1BA36023681E442660DCE72A4600F06E
:10331000BBFA06460028E2D121695046FFF758FD66
:10332000C8E700002DE9F04F9DB003938B898046DC
:103330001D060C4616460FD50B696BB94021FFF7E9
:1033400093FD2060206128B90C23C8F800304FF0AD
:10335000FF30C7E0402363610023099320238DF8E9
:10336000293030234FF0010B8DF82A3037463D4687
:1033700015F8013B0BB1252B3ED1B7EB060A0BD05C
:103380005346324621464046FFF771FF013000F0B8
:10339000A480099B534409933B78002B00F09D8047
:1033A00000234FF0FF32CDE90523049307938DF8F6
:1033B00053301A932F46052217F8011B4F4800F08F
:1033C0003CFA049BD0B9D90644BF20228DF8532083
:1033D0001A0744BF2B228DF853202A782A2A15D0A9
:1033E0002F4600200A25079A394611F8013B303B49
:1033F000092B4DD9B8B10FE02F46B8E73F4A3D46FB
:10340000801A0BFA00F018430490D3E7039A111DB9
:1034100012680391002A01DB079204E0524243F054
:103420000203079204933B782E2B0CD17B782A2B36
:1034300033D1039B02371A1D1B680392002BB8BFC0
:103440004FF0FF3305932E4D03223978284600F0C4
:10345000F4F938B14023401B03FA00F0049B013714
:10346000034304933978062226487E1C8DF82810E1
:1034700000F0E3F9002838D0234B13BB039B07333C
:1034800023F0070308330393099B4B4409936DE72B
:1034900005FB023201200F46A6E700230A25194644
:1034A00001370593384610F8012B303A092A03D921
:1034B000002BC8D00591C6E705FB01210123074673
:1034C000F0E703AB00932246104B04A94046AFF34C
:1034D0000080B0F1FF3F8146D6D1A3895B063FF55E
:1034E00036AF09981DB0BDE8F08F03AB00932246BC
:1034F000064B04A9404600F081F8EAE7C0640008E2
:10350000C6640008CA640008000000006F320008AA
:103510002DE9F04791461F468A680B69064693429B
:10352000B8BF1346C9F8003091F843200C46DDF8C7
:10353000208012B10133C9F800302368990642BFD8
:10354000D9F800300233C9F80030256815F00605B7
:1035500007D104F1190AE368D9F800209B1AAB429D
:1035600029DC94F843302268003318BF0123920607
:103570002ED404F1430239463046C047013021D0F1
:103580002368E56803F00603042B18BF0025D9F86B
:1035900000204FF0000908BFAD1AA368226908BFD8
:1035A00025EAE5759342C4BF9B1AED181A344D45C0
:1035B0001AD1002008E00123524639463046C04760
:1035C000013003D14FF0FF30BDE8F0870135C2E78D
:1035D0003020E11881F843005A1C94F84510224429
:1035E000023382F84310C4E70123224639463046AD
:1035F000C0470130E6D009F10109D8E72DE9F043D1
:1036000001F1430C0C46097E85B06E29174606462B
:1036100098460C9A00F0B38022D8632936D00AD895
:10362000002900F0B980582900F0838004F1420598
:1036300084F8421032E0642901D06929F6D120686B
:103640001368050603F104012AD51B681160002BDD
:1036500003DA2D225B4284F843206F480A2239E0C6
:10366000732900F09D8008D86F2920D07029DDD102
:10367000236843F02003236003E0752917D07829DD
:10368000D4D17823654884F8453055E0136804F1B7
:103690004205191D1B68116084F8423001238CE03B
:1036A0001B6810F0400F116018BF1BB2CFE7136802
:1036B0002568181D1060280601D51B6802E0680601
:1036C000FBD51B886F2914BF0A220822524800210B
:1036D00084F843106568002DA560C0F295802168CC
:1036E00021F004012160002B3DD1002D40F08E809F
:1036F0006546082A0BD12368DB0708D52369626871
:103700009A42DEBF302305F8013C05F1FF35ACEBF2
:1037100005032361CDF800803B4603AA21463046CD
:10372000FFF7F6FE01304DD14FF0FF3005B0BDE898
:10373000F083394884F84510136821681D1D1B6803
:1037400015600A060BD5CA0744BF41F0200121606D
:103750001BB9226822F0200222601022B7E74D0632
:1037600048BF9BB2EFE76546B3FBF2F102FB1133B2
:10377000C35C05F8013D0B460029F5D1B9E7136894
:103780002568181D6169106028061B6801D519603D
:1037900002E06A06FBD51980002365462361B9E77C
:1037A0001368191D11601D6862680021284600F029
:1037B00044F808B1401B606063682361002384F80B
:1037C0004330A7E723692A4639463046C0470130CF
:1037D000AAD023689B0713D4E068039B9842B8BF24
:1037E0001846A3E701234A4639463046C047013010
:1037F0009AD00135E368039A9B1AAB42F2DCEBE7FF
:10380000002504F11909F5E7002BACD1037804F188
:10381000420584F842306CE7D1640008E264000895
:1038200049B1FF2A8BBF8A230A700360012088BF39
:103830004FF0FF3070470846704710B5C9B20244D8
:103840009042034601D1002303E01C7801308C42F2
:10385000F6D1184610BD884210B501EB020307D817
:10386000421E99420AD011F8014B02F8014FF8E7C5
:103870008342F5D98118D21AD34200D110BD13F872
:10388000014D01F8014DF7E7F8B5074614460E461D
:1038900021B9BDE8F8401146FFF7E6BA22B9FFF7B3
:1038A00097FA25462846F8BD00F014F8A0420FD23A
:1038B00021463846FFF7D8FA05460028F2D03146AF
:1038C0002246FFF771FA31463846FFF781FAE9E7F9
:1038D0003546E7E751F8043C181F002BBCBF0B58D6
:1038E000C0187047044A05491368002B08BF0B46EF
:1038F00018441060184670475C050020C010002076
:103900007047000038B50E4B054618784FF47A73AF
:10391000B3FBF0F30B4A1068B0FBF3F000F0A0F833
:10392000044658B90F2D09D8024629464FF0FF30FA
:1039300000F054F82046044B1D6038BD0120FCE720
:10394000E8010020F0010020EC010020074A08B542
:103950001368032043F01003136000F02DF80020DB
:10396000FFF7D0FFFFF7CCFF002008BD002002408A
:10397000034A044B11681B780B441360704700BF67
:10398000BC100020E8010020014B1868704700BF00
:10399000BC10002038B50446FFF7F6FF0546631C4F
:1039A0001EBF044B1B78E418FFF7EEFF401BA0423C
:1039B000FAD338BDE8010020074A0002D36800F4BA
:1039C000E06023F4E0631B041B0C43F0BF6343F48B
:1039D00000330343D360704700ED00E0174B70B530
:1039E000DC684FF0FF36C4F30224C4F10705042D50
:1039F00004F1040328BF0425062B98BF002406FA0F
:103A000005F388BF033C21EA0303A34006FA04F44C
:103A100022EA0404002843EA0403A8BF00F160403E
:103A20004FEA0313B8BF064ADBB2ABBF00F56140F3
:103A300000F00F0080F80033135470BD00ED00E07B
:103A400014ED00E0002808DB0123420900F01F000C
:103A500003FA00F0014B43F82200704700E100E058
:103A60000138B0F1807F0AD2F021064B064A586037
:103A700082F823100020072298601A607047012006
:103A8000704700BF10E000E000ED00E010B530B37B
:103A900014220168134B0B44B3FBF2F39B00036445
:103AA000114B0A68C363D0E901342343C46822F48C
:103AB0007F522343046922F03002234344692343A5
:103AC00084692343C469234313430B600122002309
:103AD00080F82120836380F82030184610BD012033
:103AE000FCE700BFF8FFFDBF00000240F0B590F812
:103AF0002040012C35D0012490F8215080F820403E
:103B0000A5424FF000064FF0020428D180F8214072
:103B100004688663266826F001062660D0E90F67F0
:103B2000BD407560636043680568102BC36A0BBFB6
:103B3000A260A160E160E2604BB1236843F00E0334
:103B4000002023602B6843F001032B60F0BD236845
:103B500023F004032360236843F00A03F0E780F8AE
:103B600020600220F2E790F82130022B06D00423D7
:103B70008363002380F82030012070470368C16B05
:103B80001A6822F00E021A601A6822F001021A6006
:103B90000122036C02FA03F34B60002380F821201A
:103BA00080F820301846704790F8213010B5022B6D
:103BB00003D004238363012010BD03681A6822F038
:103BC0000E021A601A6822F001021A60184A934223
:103BD0001FD0143293421ED0143293421DD014329F
:103BE00093421DD0143293421DD0143293420CBF25
:103BF0004FF480134FF080730E4A0024536001236A
:103C000080F82130436B80F820407BB198472046F4
:103C1000D2E70123F0E71023EEE74FF48073EBE7E0
:103C20004FF48053E8E74FF48033E5E71846C3E7E5
:103C3000080002400000024070B40425C66B026C0C
:103C40003468036895402542196832D04D0730D555
:103C50001A6896065EBF1A6822F004021A603E4A8D
:103C6000934219D01432934218D01432934217D091
:103C70001432934217D01432934217D01432934225
:103C80000CBF4FF480034FF08063344A5360C36A23
:103C9000002B5ED070BC18470423F6E74023F4E7FE
:103CA0004FF48063F1E74FF48043EEE74FF4802355
:103CB000EBE702259540254235D08D0733D51A68AC
:103CC000940606D41A6822F00A021A60012280F8CB
:103CD0002120214A934219D01432934218D0143231
:103CE000934217D01432934217D01432934217D014
:103CF000143293420CBF4FF400134FF00073174A75
:103D00005360002380F82030836AC1E70223F6E77E
:103D10002023F4E74FF40073F1E74FF40053EEE78C
:103D20004FF40033EBE708259540254211D00907F1
:103D30000FD5196821F00E011960012303FA02F270
:103D40007260836380F82130002380F82030036B99
:103D50009EE770BC704700BF0800024000000240B0
:103D60002DE9F74F00242646654BDFF8A4C1DFF8A4
:103D7000A4E10A6832FA06F502D103B0BDE8F08F7B
:103D80004FF0010808FA06F802EA080290457ED1D1
:103D90004D68122D00F0A98000F28280022D00F003
:103DA000A18076D8002D00F08880012D00F0988049
:103DB0004FF00F09FF2A93BF824606F18045083D68
:103DC000D0F800B092BFB500D0F804B0AD0009FA49
:103DD00005F82BEA080804FA05F588BF00F1040A83
:103DE00048EA0505CAF80050D1F804A01AF0805F2F
:103DF0004DD0444F26F00308BD6908F1804845F0D6
:103E00000105BD61BD6908F5803805F00105019522
:103E100006F0030B019D4FEA8B0BD8F8085009FA06
:103E20000BF925EA0909384DA84263D005F58065EC
:103E3000A84261D005F58065A8425FD005F5806590
:103E4000A8420CBF0325042505FA0BF545EA090530
:103E5000C8F808501D681AF4803F14BF15439543F5
:103E60001D605D681AF4003F14BF154395435D6003
:103E70009D681AF4801F14BF154395439D60DD684B
:103E80001AF4001F14BF2A4325EA0202DA60013641
:103E90006FE7032D22D0112D8AD1CC68043487E737
:103EA0001A4FBD4209D012D8DFF86C904D4504D0AE
:103EB00009F580394D457FF47BAF8C68C4B1012C86
:103EC0000CBFC0F81080C0F81480082470E7654566
:103ED000F3D07545F1D0DFF84490EBE7002467E7B5
:103EE000CC6865E7CC68083462E7CC680C345FE7DF
:103EF00004245DE70025A7E70125A5E70225A3E740
:103F000000040140001002400008014000002110A0
:103F100000003110000032100000111000002210CB
:103F20008368194214BF0120002070470AB1016163
:103F300070470904FBE7C36801EA030221EA0301B1
:103F400041EA0241016170472DE9F341054608B994
:103F500001203CE00368DB0710D42B689F075DD489
:103F60002B68190700F194802B685A0700F1BE8076
:103F7000E869002840F02C81002028E08F4C63681D
:103F800003F00C03042B07D0636803F00C03082B29
:103F900009D16368DE0306D523689C03DDD56B6811
:103FA000002BDAD1D4E76B68B3F5803F12D12368D8
:103FB00043F480332360FFF7E7FC06462368980349
:103FC000CBD4FFF7E1FC801B6428F7D9032002B0B3
:103FD000BDE8F0819BB9236823F480332360236814
:103FE00023F480232360FFF7CFFC06462368990360
:103FF000B3D5FFF7C9FC801B6428F7D9E6E7B3F512
:10400000A02F236803D143F480232360CFE723F458
:1040100080332360236823F48023CBE7674C6368F5
:1040200013F00C0F07D0636803F00C03082B10D1BA
:104030006368DA030DD423689B0702D52B69012B33
:1040400086D123686A6923F0F80343EAC203236038
:1040500086E72A695A4B6AB101221A60FFF794FC7D
:10406000064623689F07ECD4FFF78EFC801B0228CE
:10407000F7D9ABE71A60FFF787FC06462368980775
:104080007FF56EAFFFF780FC801B0228F6D99DE715
:10409000AA694A4C4B4BDAB101221A60FFF774FC53
:1040A0000646636A9B070DD54FF4FA52464B1B68D0
:1040B000B3FBF2F3019300BF019B5A1E0192002B48
:1040C000F9D151E7FFF760FC801B0228E9D97DE7B1
:1040D0001A60FFF759FC0646636A9F077FF544AFF5
:1040E000FFF752FC801B0228F6D96FE7334CE369D7
:1040F000D80024D40127E36943F08053E361E369E6
:1041000003F080530093009B304E3368D90518D5D7
:10411000EB68012B26D1236A43F001032362FFF7EA
:1041200033FC41F288368046236A9B073FD5002F37
:104130003FF41EAFE36923F08053E36118E70027E3
:10414000E2E7336843F480733360FFF71DFC804679
:104150003368DA05DCD4FFF717FCA0EB080064280D
:10416000F6D933E7ABB9236A41F2883823F001036B
:104170002362236A23F004032362FFF705FC06464B
:10418000236A9807D3D5FFF7FFFB801B4045F7D97B
:104190001CE7052B236A03D143F004032362BAE72B
:1041A00023F001032362236A23F00403B6E7FFF739
:1041B000EBFBA0EB0800B042B6D907E700100240C5
:1041C0000000424280044242F001002000700040A2
:1041D0002A4B5A681C4602F00C02082A3DD00023E4
:1041E000274E022833602BD1FFF7CEFB074623680A
:1041F00099011FD42B6AB3F5803F05D16268A96885
:1042000022F400320A436260696A62680B4322F456
:1042100074121343636001233360FFF7B5FB054657
:1042200023689A013FF5A8AEFFF7AEFB401B0228BA
:10423000F6D9CBE6FFF7A8FBC01B0228D7D9C5E605
:10424000FFF7A2FB054623689B017FF595AEFFF7BC
:104250009BFB401B0228F6D9B8E601283FF4B7AE15
:1042600058682B6A00F480329A427FF471AE6B6A10
:1042700000F47010C01A18BF0120A8E60010024018
:104280006000424230B5184B87B002AC03F1100514
:10429000224618685968083303C2AB421446F7D166
:1042A00040F201231149ADF804304B6803F00C02D1
:1042B000082A17D1C3F3834206A80244DB0312F88D
:1042C000102C0CD54B680A48C3F34043504306AA50
:1042D000134413F8143CB0FBF3F007B030BD0548AD
:1042E0005043FAE70248F8E738630008001002403C
:1042F00000127A0000093D002DE9F0410D46044608
:1043000010B90120BDE8F081444A136803F00703A7
:104310008B4228D321688E0730D4CA0743D43F4A42
:10432000136803F00703AB4265D822683C4D12F0D6
:10433000040F6CD1130706D56B68226923F4605310
:1043400043EAC2036B60FFF79DFF6B68354AC3F316
:104350000313D35CD840344B1860344B1868FFF714
:10436000D1FA0020CEE7136823F007030B43136054
:10437000136803F007038B42C3D1CBE7284B11F03E
:10438000040F1EBF5A6842F4E0625A60080742BF39
:104390005A6842F460525A605A68A06822F0F002EB
:1043A00002435A60B9E762681D4E012A33681AD188
:1043B00013F4003FA5D0736841F2883823F003035B
:1043C00013437360FFF7E0FA07467368626803F00F
:1043D0000C03B3EB820FA2D0FFF7D6FAC01B404507
:1043E000F3D903208EE7022A02D113F0007FE1E720
:1043F00013F0020FDEE7136823F007032B4313606B
:10440000136803F00703AB427FF47BAF8DE76B6863
:10441000E16823F4E0630B436B608BE7002002400C
:1044200000100240F4650008F0010020EC010020BB
:10443000044B054A5B68C3F30223D35C034A10684C
:10444000D84070470010024004660008F0010020C8
:10445000044B054A5B68C3F3C223D35C034A10686C
:10446000D84070470010024004660008F0010020A8
:104470002DE9F3411C4616460F460546FFF784FA20
:104480003444241AFFF780FA8046234B1B68C3F399
:10449000CB3363432A680193936837EA030301D05F
:1044A00000202EE0731CF7D0FFF76EFAA0EB080097
:1044B000A04229D32B685A6822F0E0025A606A6849
:1044C000B2F5827F0AD1AA68B2F5004F02D0B2F5E8
:1044D000806F03D11A6822F040021A60AA6AB2F50E
:1044E000005F07D11A6822F400521A601A6842F479
:1044F00000521A60012385F851300023032085F80B
:10450000503002B0BDE8F081019B002B019B08BF39
:104510000024013BBEE700BFF001002010B51346A8
:104520000A4680210446FFF7A3FF20B10320636DF4
:1045300043F02003636510BD704710B504460028A2
:1045400051D0436A002B4AD14268B2F5827F00D035
:10455000C3610023A36294F8513003F0FF0223B932
:1045600084F850202046FFF7E7FF0223226884F8F2
:1045700051301368A06823F040031360636800F4AF
:10458000044003F482730343E068A16900F400600F
:104590000343206900F002000343606900F001005A
:1045A000034301F400700343E069090C00F0380094
:1045B0000343206A01F0040100F080000343A06A75
:1045C00000F40050034313605160D369002023F4CA
:1045D0000063D3610123606584F8513010BD00236E
:1045E000C0E90433B5E70120F8E72DE9F3411E46A1
:1045F00090F850300446012B0D46904600F09E8006
:10460000012380F85030FFF7BFF9074694F85100B6
:10461000C0B2012840F09080002D60D0B8F1000FAA
:104620005DD00323002084F85130A3686065B3F5A2
:10463000004FA4F83680A063A087E087C4E910008B
:104640002563A4F83480206807D1036823F0400371
:104650000360036843F4804303600368E2685B0619
:104660005EBF036843F040030360B2F5006F636808
:104670003ED113B1B8F1010F07D135F8023BC36049
:104680002563E38E013B9BB2E386E38E9BB2A3B925
:104690003A4631462046FFF741FF002849D1A3683A
:1046A00033B901932368DA6801929B680193019BF7
:1046B000606D003018BF012011E0226893689807F0
:1046C00005D5236B33F8021BD1602363D9E7FFF7CD
:1046D0005BF9C01BB042D8D3711CD6D00320012394
:1046E00084F85130002384F8503002B0BDE8F081E6
:1046F00013B1B8F1010F08D12B780373236B013389
:104700002363E38E013B9BB2E386E38E9BB2002BD7
:10471000BED023689A68920703D5226B12781A7369
:10472000ECE7FFF731F9C01BB042EED3731CECD0BD
:10473000D4E720236365B2E70220D0E70220D4E764
:104740002DE9F7431E4690F850300446012B0D46E4
:1047500091460A9F00F0E280012380F85030FFF775
:1047600013F994F851308046DBB2012B61680AD00E
:10477000B1F5827F40F0D080A068002840F0CC8066
:10478000042B40F0C980002D00F0C480B9F1000F67
:1047900000F0C080002E00F0BD8094F85130C4F8C5
:1047A0003890042B1CBF052384F851300023636527
:1047B000C4E910332368E687E6861A68A6875006A0
:1047C00058BF1A68256358BF42F04002A68658BFFA
:1047D0001A60E268B2F5006F58D109B1012E07D115
:1047E00035F8022BDA60E38E2563013B9BB2E3864A
:1047F0000125E38E9BB2ABB9E38F9BB293B94246DE
:1048000039462046FFF78AFE002840F08180A368E1
:10481000002B32D123680190DA6801929B680193E2
:10482000019B2AE02268936899070DD5E38E9BB21D
:1048300053B14DB10025236B33F8021BD1602363C4
:10484000E38E013B9BB2E3869368DB070CD5E38FD5
:104850009BB24BB10125D268A36B23F8022BA36353
:10486000E38F013B9BB2E387FFF78EF8A0EB0800D4
:104870008742BED87E1CBCD00320012384F851306F
:10488000002384F8503003B0BDE8F08309B1012E55
:1048900008D12A781A73236B01332363E38E013B1B
:1048A0009BB2E3860125E38E9BB21BB9E38F9BB2DB
:1048B000002BA4D02268936898070ED5E38E9BB294
:1048C0005BB155B10025236B1B781373236B013348
:1048D0002363E38E013B9BB2E38622689368D9078A
:1048E0000DD5E38F9BB253B10125D268A36B1A702B
:1048F000A36B0133A363E38F013B9BB2E387FFF715
:1049000043F8A0EB08008742CDD87B1CCBD0B3E79F
:10491000202363650120B0E70220AEE70220B2E762
:1049200090F8510070470368DA6822F49072DA60F8
:104930005A6922F001025A61202380F83A30704708
:1049400010B504460368C1681A6922F440520A434C
:104950001A6182680069D9680243606921F4B05124
:1049600021F00C0102430A43DA605A69A16922F47A
:1049700040720A435A610E4A934215D1FFF768FD0F
:1049800019235843636864229B00B0FBF3F0B0FB2B
:10499000F2F102FB11031B013233B3FBF2F3246883
:1049A00003EB0113A36010BDFFF742FDE8E700BF72
:1049B00000380140F8B504460E4617461D462168EA
:1049C0000B6836EA030301D1002014E06B1CF7D01A
:1049D00095B923680320DA6822F4D072DA605A6944
:1049E00022F001025A61202384F8393084F83A30E9
:1049F000002384F83830F8BDFEF7C6FFC01B85429F
:104A0000DDD2E6E7704710B5044640B390F8393080
:104A100003F0FF021BB980F83820FFF7F3FF2423CF
:104A2000226884F83930D368204623F40053D360D9
:104A3000FFF786FF236800201A6922F490421A616A
:104A40005A6922F02A025A61DA6842F40052DA60A6
:104A50002023E06384F8393084F83A3010BD012017
:104A6000FCE72DE9F843984690F839300446202BAE
:104A70000E4691464AD1002946D0002A44D090F8EB
:104A80003830012B42D00123002580F83830212313
:104A9000C56380F83930FEF777FFA3680746B3F5A2
:104AA000805FA4F82490A4F8269003D123690BB961
:104AB00035461E46002384F83830E38C9BB253B948
:104AC00043463A4640212046FFF774FF50B9202361
:104AD00084F8393007E043463A4680212046FFF704
:104AE00069FF10B10320BDE8F88322684EB935F89C
:104AF000023BC3F308035360E38C013B9BB2E384A6
:104B0000DBE716F8013BF6E70120ECE70220EAE7D5
:104B1000134690F83A2073B5202A054638D100296B
:104B200034D0002B32D090F83820012A30D0012226
:104B3000002480F83820222281628385C46380F8B3
:104B40003A20406B134A2E688262134AC262134AAB
:104B5000C0E90C240A46311DFEF7C8FF20462B6829
:104B600001941A6801925A6885F838400192019AB6
:104B7000DA6842F48072DA605A6942F001025A61DE
:104B80005A6942F040025A6102B070BD0120FBE751
:104B90000220F9E7034C0008B14C0008BD4C0008A6
:104BA000036810B55A6990F839100446212911D1CB
:104BB00011060FD55A69006B22F080025A6108B1C4
:104BC000FEF7D1FF2268D36823F0C003D36020230F
:104BD00084F8393023685A6994F83A1022290CD1A4
:104BE00052060AD55A69606B22F040025A6108B138
:104BF000FEF7B9FF2046FFF796FE002010BD704774
:104C0000704708B50368426A1B6813F0200310D18F
:104C1000D3851368D96821F48071D960596921F06E
:104C200001015961596921F040015961202382F83D
:104C30003A301046FFF7E4FF08BD90F83A3010B55F
:104C4000222B32D18168836AB1F5805F026820D15E
:104C5000016909BB5268C2F3080223F8022BC48D14
:104C60008362013CA4B2C4858CB90368DA6822F07F
:104C70002002DA60DA6822F48072DA605A6922F07F
:104C800001025A61202380F83A30FFF7B9FF002073
:104C90000CE031B9016921B952681A70836A013395
:104CA000DDE7526802F07F02F7E7022010BD70478F
:104CB00008B5406AFFF7FBFF08BD7047416A08B5B9
:104CC0000B685A6991F8390021280AD1120608D5D3
:104CD0000022CA84DA6822F0C002DA60202281F859
:104CE00039205B6991F83A20222A06D15B0604D567
:104CF00000230846CB85FFF716FECB6B084643F032
:104D00001003CB63FFF7D9FF08BD0000036870B53F
:104D10001A6804461607D9685D6907D196065AD500
:104D20008D0658D5BDE87040FFF787BF15F0010527
:104D300002D111F4907F4ED0D00705D5CB0542BFEC
:104D4000E36B43F00103E363560704D51DB1E36B46
:104D500043F00203E363900704D51DB1E36B43F016
:104D60000403E363130706D58E0600D41DB1E36B7D
:104D700043F00803E363E36B43B3950604D5880669
:104D800002D52046FFF759FF236820465D69E26B94
:104D9000110702D415F0400519D0FFF7C4FD2368B0
:104DA0005A6952060FD55A69606B22F040025A6167
:104DB00048B1254B4363FEF7F7FE38B1606BBDE8A1
:104DC0007040436B18472046FFF777FF70BDFFF731
:104DD00074FFE563FAE7160626D50D0624D594F888
:104DE0003920212AF2D1A168226AB1F5805F16D15B
:104DF0002169A1B932F8021BC1F30801596022628E
:104E0000E28C013A92B2E284002ADFD1DA6822F021
:104E10008002DA60DA6842F04002DA60D6E7511CBC
:104E2000216212785A60EBE75006CFD54A06CDD5FD
:104E3000DA68204622F04002DA60202384F8393014
:104E4000FFF7DDFEC2E700BF4D4E000808B50023A6
:104E5000406AC385C384FFF730FF08BD002103E02B
:104E60000B4B5B58435004310A480B4B42189A4293
:104E7000F6D30A4A02E0002342F8043B084B9A4268
:104E8000F9D300F010F8FDF763FFFCF761F9704704
:104E9000AC66000800000020F4010020F4010020AE
:104EA000C0100020FEE7704701380A44914200D14B
:104EB000704711F8013B00F8013FF7E702449042C8
:104EC00000D1704700F8011BF9E700001E4A30B519
:104ED00013687BB1D0F800429C4209D15468D0F8E5
:104EE00008329C4204D11489B0F806329C4224D086
:104EF000002400E00124D368EBB1D0F80052AB42AB
:104F000009D11569D0F808329D4204D1958AB0F8CC
:104F100006329D4216D074B902290CBF002012201F
:104F200030BD0C2101FB03225389B3F5807F14BFF0
:104F300000201020F4E70020F2E700230029F0D041
:104F40001020EDE70123F9E764050020244AF0B5BD
:104F50001368D0F800629E4209D15568D0F8084223
:104F6000A54204D1B0F806521489A54228D0D468CD
:104F7000B44209D11769D0F80852AF4204D1978AD8
:104F8000B0F80652AF4226D00BB134BB01230C243B
:104F90005C4315191651D0F80842B0F806026C604F
:104FA00028810020688199B90C2101FB03214989DE
:104FB000013189B20C2000FB0322581C5181F0BD45
:104FC00000230029F0D00C2101FB0321498921B9DC
:104FD0004FF48071EEE70123F3E70020EFE700BF15
:104FE000640500200138012817D80C220C4902FB67
:104FF00000125389B3F5807F06D1002353810C231F
:1050000043430020C8507047002BF8D0013B9BB2AF
:105010005381002BF3D0002070470220704700BF5F
:1050200064050020D0F80022490A92F80222D0F844
:105030002432B1FBF2F10433186830B1814202D35B
:10504000091A0833F8E7586808447047026810B531
:1050500052B111460B4611F8014B202C0CD93A2CB9
:10506000F8D1511C8B4202D04FF0FF3005E012788E
:10507000302AF9D101330360002010BD08B590B18A
:10508000D0F800327BB193F8002262B1B3F8061277
:10509000B0F80422914206D193F8010201F0FEF823
:1050A00010F0010000D0092008BDCA7E8B7E0328C5
:1050B00043EA022301BF487D0A7D42EA002243EA17
:1050C00002431846704770B5D0F82C52044601468A
:1050D00001232A4690F8010201F008F9D0B9D4F86A
:1050E0002032D4F81822EB1A934284F8040201D338
:1050F000002070BD94F80362012EF9D9D4F818325B
:1051000021461D442A46012394F8010201F0EEF8DD
:10511000013EF1E70120ECE790F804320BB1FFF714
:10512000D2BF18467047D0F82C3270B58B42064675
:105130000D4613D0FFF7F0FF044668B92A46012355
:10514000314696F8010201F0C3F800281CBF4FF069
:10515000FF350124C6F82C52204670BD0024FBE721
:10516000002310B580F804324FF0FF33C0F82C3222
:105170000446FFF7D8FFC0B994F8FF2194F8FE3138
:1051800043EA02234AF65522934210D1D4F836302E
:10519000084A23F07F43934206D0D4F8520020F00F
:1051A0007F40801A18BF012010BD0320FCE70220B9
:1051B000FAE700BF464154000023F0B5036085B014
:1051C000074608461546FFF741FF061EC0F222813A
:1051D000944B53F82640002C00F01E813C6094F85C
:1051E000003273B194F8010201F058F8C70708D4EF
:1051F000002D00F0138110F0040000D00A2005B04B
:10520000F0BD0023F0B284F8003284F8010201F00E
:105210004FF8C10700F104810DB14207EED400211F
:105220002046FFF79DFF012840F0DD80002204F5B5
:10523000E37111F8043C03B10B684DF822300132E0
:10524000042A01F11001F4D100265DF82650002D4A
:1052500000F0C08029462046FFF782FF002840F07A
:10526000BA80227BE37A43EA0223B3F5007F40F061
:10527000BD80E37DA17D267C51EA032108BF616AE0
:10528000731E012BC4F8181284F8036200F2AE807A
:1052900094F80DE084F802E2BEF1000F00F0A68061
:1052A0000EF1FF3313EA0E0F40F0A080A37C607C68
:1052B00040EA03200307A4F8080240F09780E27C4C
:1052C000237DE77B52EA0323A27B08BF236A52EACD
:1052D000072200F08B8001FB06FC02EB10176744ED
:1052E000BB42C0F08380DB1BB3FBFEF3002B7DD001
:1052F00040F6F5764FF6F57EB34294BF01260226BE
:10530000734588BF03262A4402332F44032EC4F872
:105310001432C4F81C52C4F82022C4F8287269D18F
:10532000002863D1E26A9B00C4F8242203F2FF1331
:10533000B1EB532F5AD34FF0FF33C4F81032C4F8F7
:105340000C328023032E84F805322DD194F83120BD
:1053500094F8303043EA0223012B25D1691C204602
:10536000FFF7E1FE00BB94F8FF2194F8FE3184F8CA
:10537000050243EA02234AF65522934214D12268D9
:10538000294B9A4210D103F1FF53D4F8E42103F5DD
:10539000005320339A4201BFD4F8E831C4F81032E8
:1053A000D4F8EC31C4F80C32204A84F80062138837
:1053B000002001339BB21380A4F806321C4B1A68FC
:1053C000944204BF00221A60DA6894427FF417AF57
:1053D000D86014E702200136042E7FF436AF03288C
:1053E00004D101200BE70328FBD008B10D2006E70C
:1053F000054636E70028F9D06244022EC4F824227C
:105400004FEA43021BBFD21803F00103134603EB1C
:1054100052038BE70B20F2E60C20F0E62846EEE67E
:105420000320ECE660050020525261417C0500201B
:105430006405002038B50446FFF76EFE05460028D7
:105440004BD194F80032032B3ED194F80532012B56
:105450003AD101464FF400722046FFF72FFD4AF67D
:105460005522A4F8FE211D4A94F80102226002F19F
:10547000FF5202F500522032C4F8E421D4F8102281
:10548000C2F3072184F8E82184F8E911110C120E07
:1054900084F8EB21D4F80C2284F8EA11C2F3072136
:1054A00084F8EC2184F8ED11110C120E84F8EF2130
:1054B000D4F81C2284F8EE110132C4F82C222146C3
:1054C00000F014FF84F80552002294F801021146FE
:1054D00000F01AFF003018BF012038BD5252614160
:1054E000D0F814320239023B8B4283BF90F802326B
:1054F000D0F8280201FB0300002070470129F8B50D
:1055000006460D4659D9D0F814328B4255D990F839
:105510000032022B27D0032B36D0012B4DD101EBCB
:105520005104D0F8201201EB5421FFF7FCFD10B11B
:105530004FF0FF30F8BDD6F82012671C01EB572161
:10554000C4F308043046345DFFF7EDFD0028EFD1C9
:10555000C7F30807F05DEB0744EA00204CBF0009E1
:10556000C0F30B00E6E7D0F8201201EB1521FFF79E
:10557000DAFD0028DCD16D0005F4FF7573195B7846
:10558000705D40EA0320D5E7D0F8201201EBD51179
:10559000FFF7C9FD0028CBD1AD0005F4FE757319E6
:1055A0009878DA78000440EA0260725D5B78104314
:1055B00040EA032020F07040BCE70120BAE770B554
:1055C0000446D0F808220D46012AA4F8061201D19B
:1055D000022070BDD0F80032D3F814129142F7D9EE
:1055E000F2B993F80012032902D1D3F82412C1B9F9
:1055F000B3F80812A942EBD9D3F82402C4F80C225C
:105600000028E5D0D4F8003200EB151005F00F05A6
:1056100003EB4515C4F81002C4F814520020D8E773
:1056200011460A4693F802623601B542D4F80002E8
:10563000114602D2FFF754FFE0E7FFF75FFF431C7C
:10564000024609D00128C3D9D4F80032D3F8143265
:105650008342BDD9AD1BE8E70120BAE701292DE956
:10566000F04105460C46164670D9D0F814328B42EC
:105670006CD990F80032022B3CD0032B4BD0012B7D
:1056800064D101EB5107D0F8201201EB5721FFF74D
:105690004AFD28BB14F0010407F10108C7F308070D
:1056A00017BFEB5DF3B203F00F0233011CBF03F031
:1056B000F0031343EB550123D5F8201285F804328B
:1056C00001EB58212846FFF72EFD48B9C8F308081A
:1056D00044B1C6F3071205F80820012385F8043207
:1056E000BDE8F08115F80820C6F3032622F00F026A
:1056F0003243F0E7D0F8201201EB1421FFF713FD3D
:105700000028EDD1640004F4FF742E55C6F307227F
:105710002C446270E1E7D0F8201201EBD411FFF7BE
:1057200002FD0028DCD1A40004F4FE742919CB7812
:105730001B0603F0704343EA0602C2F307232A550F
:105740004B70130C120E8B70CA70C6E70220C7E7AD
:10575000F8B505460F4689B9D0F80C62FEB1D0F80D
:1057600014329E4228BF01263446D5F81432013443
:10577000A34217D8012E14D8002408E0FFF7BEFE7C
:10578000012804463BD9013003D14FF0FF342046B5
:10579000F8BDD5F81432A342F9D83E46E4E7012615
:1057A000E2E7022421462846FFF7A8FE30B1411C5B
:1057B000EBD0012823D0B442D7D1DDE76FF070429F
:1057C00021462846FFF74AFFB8B97FB9D5F810320D
:1057D000C5F80C425A1CDAD0013BC5F8103295F8D6
:1057E000053243F0010385F80532D0E722463946F9
:1057F0002846FFF733FF0028E8D00128C5D0012450
:10580000C5E72DE9F843B0F8066204460136B3B2A5
:10581000894613B90420BDE8F883D0F81032002B74
:10582000F8D016F00F080BD1D4F80C120133D0F8D1
:105830000002C4F8103269B9B0F80832B342E9D9AD
:10584000D4F80032A4F8066203EB4813C4F814320B
:105850000020E0E790F80272013F17EA1617EFD137
:10586000FFF74CFE0128054601D80220D3E7421C71
:1058700001D10120CFE7D4F80002D0F81432AB42B6
:105880002FD8B9F1000FC5D0D4F80C12FFF760FF84
:10589000054600283ED00128E7D0431CE9D0D4F8C3
:1058A0000002FFF739FC01460028E2D14FF40072F4
:1058B000D4F80002FFF702FBD4F800222946104674
:1058C000FFF70EFE4FF00109C2F82C02D4F80002D7
:1058D00090F80232BB420ED8D0F82C32DF1BC0F851
:1058E0002C72C4F80C522946D4F80002FFF7F8FDD8
:1058F000C4F81002A4E780F80492FFF7E4FB002844
:10590000B7D1D4F800220137D2F82C320133C2F8D3
:105910002C32DBE707207EE72DE9F8430B780446BD
:105920002F2B0D4601D05C2B00D101350026C4F889
:1059300008622B781F2B35D95C4F2B78A8462F2B6C
:1059400005F10105F9D05C2BF7D0D4F818620B22D1
:1059500020213046FFF7B2FA4FF0000C0821E6464E
:10596000624608F1FF3919F8013F0EF1010E202BB4
:1059700027D92F2B25D05C2B23D02E2B00F0828013
:1059800061450DD9180644BF803BFB5C484D48BFBC
:1059900042F0030215F8010F00287AD08342F9D1B2
:1059A000062005E031462046FFF709FEC4F81462E0
:1059B000BDE8F88342F0020206F80C300CF1010C4D
:1059C000D1E7212B08EB0E0534BF04230023BCF1E3
:1059D000000FE5D03078E52804BF05203070082995
:1059E00004BF9200D2B202F00301012902F00C02BE
:1059F00008BF43F01003042A08BF43F00803F37202
:105A000000212046FFF7DBFDF8B9D4F81012D4F8D6
:105A10000002FFF788FBC0B9D4F8142213789BB1B9
:105A2000D37A19070BD4D4F8183203F10B0C9C4528
:105A30000BD012F8016B13F8011B8E42F7D0002136
:105A40002046FFF7DEFEDFE70420D4F81832DB7AC9
:105A500030B10428ACD113F0040F08BF0520A7E72C
:105A60005A07A5D4D4F81412CB7ADB0608D5D4F89B
:105A7000003293F80002FFF718FBC4F808025CE755
:105A8000052095E708298BD192008C46D2B20B21D4
:105A900069E7A3F1410019288CD9A3F16100192805
:105AA0009EBF203B42F00102DBB285E70C66000896
:105AB0008B66000838B500210546FFF780FD0446D7
:105AC00078BBD5F81012D5F80002FFF72CFB04467E
:105AD00038BBD5F814321B78E52B1BD1D5F8101242
